:020000040040BA
:1000000018124020E5014000E1014000E1014000FC
:10001000E1014000E1014000E1014000000000007A
:10002000000000000000000000000000E1014000AE
:10003000E101400000000000E1014000E10140005A
:10004000E1014000E1014000E1014000E101400028
:10005000E1014000E1014000E1014000E101400018
:10006000E101400000000000E1014000E10140002A
:10007000E1014000E1014000E1014000E1014000F8
:10008000E1014000E1014000E1014000E1014000E8
:10009000E1014000E1014000E1014000D50E4000D7
:1000A000E1014000E1014000E1014000E1014000C8
:1000B000E1014000E1014000E1014000E1014000B8
:1000C000E1014000E1014000E10140007D0C400001
:1000D000E1014000950C4000E1014000E1014000D9
:1000E000E1014000E1014000E1014000E101400088
:1000F000E1014000E1014000E1014000E101400078
:10010000E1014000E1014000E1014000E101400067
:10011000E1014000E101400000000000000000009B
:10012000E1014000E1014000E1014000E101400047
:10013000E1014000E1014000E1014000E101400037
:10014000E1014000E1014000E1014000E101400027
:10015000E1014000E1014000E1014000E101400017
:10016000E1014000E101400010B5054C237833B9AE
:10017000044B13B10448AFF300800123237010BD7A
:100180004C00402000000000881240000C4B43B19E
:100190000C480D4910B5AFF300800C48036823B933
:1001A00010BD0A48036833B97047094B002BF7D0DC
:1001B000BDE810401847064B002BF5D0184700BF8C
:1001C00000000000881240005000402088124000CB
:1001D0000000000008B5014B984708BD71034000BE
:1001E000FEE7000008B5104B104A9A4209D00E4BAA
:1001F0000E4A03E011681960043304320C498B4243
:10020000F8D30C4B02E000221A6004330A4A9342EE
:10021000F9D30A4A0A4B23F07F039360094B9847AE
:10022000094B9847FEE700BF0000402088124000BD
:100230004C0040204C004020180C402000ED00E015
:100240000000400091114000A90F400008B5084B84
:100250009B6913F4000F03D14FF40002044B1A61A1
:10026000044B9847024604490448054B984708BD8B
:1002700000060E40D10E400000C00040E4034020C4
:10028000E9054000054BD3F8083113F0080F03D1FE
:100290000822024BC3F80021704700BF00060E4041
:1002A0000A4B1A6F22F008021A675A6F22F00802EE
:1002B0005A6708225A601A6F22F004021A675A6FAE
:1002C00022F004025A6704225A60704700100E4060
:1002D00008B5044B9847044B984704490448054B1C
:1002E000984708BD85024000A1024000000003407D
:1002F0009403402009044000054BD3F8083113F063
:10030000200F03D12022024BC3F80021704700BF09
:1003100000060E400B4B1A6F22F480521A675A6F78
:1003200042F480525A674FF480525A601A6F22F496
:1003300080421A675A6F42F480425A674FF48042F3
:100340005A60704700120E4008B5044B9847044BA2
:10035000984704490448054B984708BDF9024000F6
:100360001503400000400340BC0340200904400046
:1003700008B5104B9847104B9B6913F4006F03D1DD
:100380004FF400620C4B1A610C4A536843F400436B
:1003900053600B4B01225A631A611A6002225A639E
:1003A0001A611A60074B9847074B9847074B9847C5
:1003B00008BD00BF8907400000060E4050180E40DF
:1003C00000100E404D024000D102400049034000A1
:1003D000EFF31083036072B6BFF35F8F7047BFF314
:1003E0005F8F036883F31088704708B5C36903B152
:1003F000984708BD08B5036A03B1984708BD08B51A
:10040000436A03B1984708BD38B504460D46002835
:1004100018BF002914BF0120002041220849094BC0
:10042000984729462046084B9847034628B9074A6B
:100430006260074AA260074AE260184638BD00BF02
:10044000F01140000907400051084000EB03400054
:10045000F5034000FF03400010B504465C22054947
:10046000003018BF0120044B98472046034B9847A3
:1004700010BD00BFF011400009074000290A4000EC
:1004800038B504460D46002818BF002914BF0120C6
:1004900000206E220349044B984729462046034B0F
:1004A000984738BDF011400009074000390A400064
:1004B00038B504460D46002818BF002914BF012096
:1004C000002077220349044B984729462046034BD6
:1004D000984738BDF011400009074000050B400067
:1004E00070B50C461646054681220E49003018BFED
:1004F00001200D4B9847012C0FD024B1022C0ED0B7
:100500006FF00C0070BD2E62321C18BF0122214614
:100510002846064B9847002070BDEE61F4E76E62F6
:10052000F2E700BFF011400009074000390C40001D
:10053000F8B5076817B13C4600260BE00E4B98470C
:10054000F8BDA5682B449B1A01338D68AB4209D2D4
:100550002646246834B163689342F2D8A5689B1A92
:100560002B44F2E7BC4203D03046044B9847F8BD19
:10057000014B9847F8BD00BF2507400051074000D8
:10058000F8B54469066901360661037E13F0010F70
:1005900005D1037E13F0020F01D1054609E0037E69
:1005A00043F002030376F8BD6F69E368204698477D
:1005B0003C469CB16368F31AA26893420ED305F1DE
:1005C00014073846064B9847237C012BECD1666014
:1005D000324621463846034B9847E5E7F8BD00BF51
:1005E000590740003105400038B504460D46002843
:1005F00018BF002914BF012000203B220549064BEB
:10060000984729462046054B984700202061044B17
:10061000236038BD0C12400009074000E90D40007E
:100620008105400010B5044653220949003018BF27
:100630000120084B98472046074B984720B9204691
:10064000064B9847002010BD6FF0100010BD00BF92
:100650000C12400009074000AD0E4000A50E4000FE
:1006600070B582B004460D46002818BF002914BF9B
:10067000012000207A221D491D4B9847237E43F01C
:100680000103237604F1140629463046194B984796
:1006900088B923696B60226929463046164B984712
:1006A000237E03F0FE032376237E13F0020F0ED188
:1006B000002002B070BD237E03F0FE0323767F226C
:1006C0000A4900200A4B98476FF01100F1E701A892
:1006D0000A4B9847237E03F0FD0323762046084B00
:1006E000984701A8074B98470020E2E70C1240000A
:1006F000090740000F07400031054000D1034000CA
:10070000B90E4000DF03400000B900BE7047036827
:100710001BB18B4203D01B68FAE700207047012011
:100720007047000038B504460D46064B984780F0E8
:10073000010039220449C0B2044B984723682B605A
:10074000256038BD0F074000241240000907400013
:1007500003680B600160704703681BB11A68026090
:10076000184670470020704743B2002B09DB5B0935
:1007700000F01F00012202FA00F04033014A42F863
:100780002300704700E100E000B583B001A80E4BE4
:1007900098470E4AD2F8883043F47003C2F8883084
:1007A000BFF34F8FBFF36F8F01A8094B9847094ADA
:1007B000136823F4706343F4C0631360064B9847D7
:1007C00003B05DF804FB00BFD103400000ED00E082
:1007D000DF034000000C0E40690D400038B50546AF
:1007E00003681C6D14F0010F1AD114F4007F1AD1A4
:1007F00014F0007F1BD114F0807F1DD114F4000F82
:1008000008D0EB682A68526C12F0200F19D0022130
:100810002846984714F0080F15D12B681C6538BD81
:1008200083689847E1E76B6828469847E0E7EB68FC
:10083000032128469847DEE7EB68002128469847C1
:10084000DCE70121E4E7EB68042128469847E4E768
:1008500030B401608B6943F001038B6103689A69CE
:1008600012F0010FFAD09A6942F002029A61634BCA
:10087000994214D0624B994267D00268936923F081
:10088000020393610268936923F001039361036893
:100890009B6913F0010FFAD1002030BC7047594B0F
:1008A00083610268936943F4004393610368564A85
:1008B000DA61036840F63312DA60036840F60B32FF
:1008C0009A640268514B9BB243F40013C2F8A03003
:1008D00003680024C3F8BC400368C3F8C84002683A
:1008E0004B4B9BB243F00053C2F8C0300568494AF5
:1008F00093B243F40033C5F8F03003682B25C3F8F6
:100900008050056802F110039BB243F40013C5F850
:100910008430056802F190039BB243F40013C5F8DC
:1009200088300368C3F89040C2F890013A4B08221F
:10093000C3F88420BFF34F8FBFF36F8FC3F88421B8
:100940005A6003680122DA6594E7344B83610268D8
:10095000936943F40043936103682B4ADA610368A7
:1009600040F63312DA60036840F60B329A6402688C
:100970002B4B9BB243F40013C2F8A0300368002253
:10098000C3F8BC200368C3F8C8200168254B9BB29C
:1009900043F00053C1F8C03004681E4901F5CA7322
:1009A0009BB243F40033C4F8F03003682B24C3F83F
:1009B0008040046801F5D2739BB243F40013C4F87D
:1009C0008430046801F509739BB243F40013C4F842
:1009D00088300368C3F89020C1F824030E4B20220E
:1009E000C3F88420BFF34F8FBFF36F8FC3F8842108
:1009F0005A6003680122DA653FE700BF0000034048
:100A00000040034000004020070A02060004402086
:100A1000000A40206800402000E100E0140040206F
:100A200000084020000640200268936923F001037B
:100A300093610020704700000368D3F8A42012F0EF
:100A40007F0F4DD0F0B585B0D3F8A460C6F305266E
:100A5000264A934232D00024254A934232D0002CB9
:100A600041D0236813F0804F30D100234B732368AB
:100A7000C3F38A430B60236813F0005F2DD10D464A
:100A800007461C4B0FCB0DF1100E0EE90F006368EB
:100A9000C3F30343734413F8102C2A7304F10801C1
:100AA000A868154B98473A68D2F8A83023F03F035E
:100AB0001E43C2F8A860002005B0F0BD0F4C04EB47
:100AC0000614C9E70E4C04EB0614C8E701234B7368
:100AD0002368C3F31C030B60CDE701230B71CEE742
:100AE0006FF0090070476FF01B00E5E7000003405E
:100AF0000040034044124000D9114000000440204F
:100B00000008402038B50268D2F8C43013F4001F42
:100B100040F08280D2F8C450C5F30445414B9A425C
:100B200034D00023404CA24234D0002B77D04A7BF3
:100B3000012A33D00A6892041A600A7B082A34D842
:100B40005C6862F313445C60044602689269C2F315
:100B50000022586862F35550586022689269C2F3C7
:100B60004022586862F3145058600A7B896803F188
:100B700008002E4B98472168D1F8C420C2F30442E4
:100B800001239340C1F8D030002038BD284B03EB3F
:100B90000513C7E7274B03EB0513C6E70A681A607E
:100BA0001A6842F080421A60C7E70C2A05D85A68D2
:100BB000092464F313425A60C6E7102A05D85A681C
:100BC0000A2464F313425A60BEE7142A05D85A680F
:100BD0000B2464F313425A60B6E7182A05D85A6802
:100BE0000C2464F313425A60AEE7202A05D85A68F1
:100BF0000D2464F313425A60A6E7302A05D85A68D8
:100C00000E2464F313425A609EE7402A9CD85A6827
:100C100042F470225A6097E76FF01B0038BD6FF006
:100C20001B0038BD0000034000400340D9114000C4
:100C3000000A40200006402021B1012909D00229E4
:100C400014D0704701684B6D23F001031A434A65C5
:100C5000704701684B6D23F4007343EA42224A65F2
:100C600003684FF0FF32C3F8E02070470268536D0D
:100C700023F4FF739B059B0D5365E2E708B5034B17
:100C8000D3F89001024B984708BD00BF6800402090
:100C9000DD07400008B5034BD3F82403024B984707
:100CA00008BD00BF68004020DD0740000E490A6A09
:100CB00022F002020D4B13430B620B4B9B6E13F0A1
:100CC000010FFAD0084B196A094A0A431A62996A55
:100CD000084A0A409A62084A9A62034B9B6E13F0D4
:100CE000020FFAD0704700BF00060E40013E3700E9
:100CF00000003701FFFF00F8013F1820114A136B75
:100D000023F0700313630F4B9B6E13F0080FFAD0A0
:100D10000C4A136B23F4407343F480731363094B41
:100D20009B6E13F0080FFAD0064A136B23F00303EF
:100D300043F002031363034B9B6E13F0080FFAD0CA
:100D4000704700BF00060E400122064B5A65054B56
:100D50009B6E13F4005FFAD04FF40052014B1A60FF
:100D6000704700BF00060E4008B5034B9847034B81
:100D70009847034B984708BDAD0C4000FD0C400060
:100D8000490D400000233BB10020704703EBC30432
:100D9000A300084618440CE010B403EBC3018A001A
:100DA00005498A588242F1D00133DBB2002BF4D0DE
:100DB00000205DF8044B704728004020034B984208
:100DC00000D07047024B1960FBE700BF00C0004035
:100DD0009003402008B5C3681B6A13F0100F00D1C0
:100DE00008BD03689847FBE7F8B507460C46084678
:100DF000274B984705468668FC60912225490120CB
:100E0000254B984716F4004F01D046F4142666602F
:100E10006B696361AB69A361EB682363EB69E361B1
:100E2000102363622B69C4F8D830394620461B4B27
:100E3000984795F90430002B0DDB5A0903F01F0386
:100E4000012101FA03F32032154941F82230BFF3A2
:100E50004F8FBFF36F8F95F90430002B09DB5A09D0
:100E600003F01F03012101FA03F360320C4941F83A
:100E7000223095F90430002B08DB590903F01F03D9
:100E8000012202FA03F3064A42F821300020F8BD9D
:100E9000850D40005412400009074000BD0D400080
:100EA00000E100E0C36805221A607047C368186A51
:100EB000C0F300407047000008B5C068024B984777
:100EC0000079024B984708BD850D40006907400036
:100ED0000020704708B5024B1868024B984708BDC0
:100EE00090034020D50D400070B584B0104B1B78A6
:100EF00004AC04F8103D01200E4B9847C5B2002603
:100F00003246294620460C4B9847029640F2A723CA
:100F100001938DF80C50094A936B03F0010383F0A1
:100F200001011163536301A8054B984704B070BDDC
:100F3000000C4020651040009510400000120E404B
:100F40005111400008B50549886001230B74044B1A
:100F5000CB600448044B984708BD00BF040C4020F8
:100F6000E90E4000E40340206106400008B50A2075
:100F7000024B98470248034B984708BD450F400075
:100F8000E40340202506400008B5044B9847044B75
:100F900098470022034B1A7008BD00BFA9104000FB
:100FA0006D0F4000000C402008B5044B9847044BDF
:100FB0009847044B01221A611A63FEE7D5014000ED
:100FC000890F400000120E4084B004AB03E9070013
:100FD000019BCE2B03D1029B1A78024B1A7004B0EE
:100FE000704700BF000C402084B004AB03E9070049
:100FF00004B0704700B599B004AB169314A9094B1F
:101000009847169B02939DF85C308DF80C3018AB16
:10101000149A43F85C2D93E80700034B984719B0E6
:101020005DF804FB81044000C90F400000B599B091
:1010300004AB169314A9094B9847169B02939DF88D
:101040005C308DF80C3018AB149A43F85C2D93E8A3
:101050000700034B984719B05DF804FB810440007A
:10106000E90F4000A0F10903062B12D8DFE803F0D6
:10107000041006080A0C0E000C207047142070475C
:10108000182070472020704730207047402070475C
:101090001020704708B513460A4601461846014B12
:1010A000984708BDD9114000F8B5104D10492846A1
:1010B000104EB047104C11492046B047104A00214D
:1010C0002846104EB047104A00212046B0470F4F27
:1010D0003A4602212846B0473A4602212046B04708
:1010E00028460B4DA8472046A847F8BD940340204A
:1010F0000000034009044000BC03402000400340BE
:10110000F50F4000E10440002D1040001511400093
:101110005904400008B5014B984708BDA91040008C
:1011200002684168037A002A18BF002909D0013BF0
:10113000DBB23F2B07D840F2FE739A4205D900205C
:101140007047002070470020704701207047000062
:1011500010B584B004460B4B984708B904B010BDD5
:101160002368009300238DF8043062680292227A8B
:101170008DF80C208DF80D3069460348034B9847D5
:10118000ECE700BF2111400094034020B10440006F
:1011900070B50D4E0D4CA41BA4100025A54209D11D
:1011A0000B4E0C4C00F060F8A41BA4100025A542C7
:1011B00005D170BD56F8253098470135EEE756F851
:1011C000253098470135F2E7741240007412400050
:1011D000741240007812400010B5431E0A44914238
:1011E00000D110BD11F8014B03F8014FF7E70000E3
:1011F0002E2E2F68616C2F7372632F68616C5F6392
:10120000616E5F6173796E632E6300002E2E2F680E
:10121000616C2F7372632F68616C5F74696D6572A6
:101220002E6300002E2E2F68616C2F7574696C730D
:101230002F7372632F7574696C735F6C6973742E8E
:10124000630000000001020304050607080C1014E7
:10125000182030402E2E2F68706C2F74632F68700A
:101260006C5F74632E630000F8B500BFF8BC08BC67
:101270009E4670478D014000F8B500BFF8BC08BC21
:081280009E4670476901400021
:1012880000044020000A40206800402078004020E8
:10129800F80040200008402000064020FC014020C3
:1012A8000C0240208C02402000C0004017000000C3
:1012B80001C0000000000000000000009F240000A2
:0C12C800000000003E4900000000000093
:0400000500400000B7
:00000001FF
