:020000040040BA
:10000000E8064020ED014000E9014000E901400020
:10001000E9014000E9014000E90140000000000062
:10002000000000000000000000000000E9014000A6
:10003000E901400000000000E9014000E901400042
:10004000E9014000E9014000E9014000E901400008
:10005000E9014000E9014000E9014000E9014000F8
:10006000E901400000000000E9014000E901400012
:10007000E9014000E9014000E9014000E9014000D8
:10008000E9014000E9014000E9014000E9014000C8
:10009000E9014000E9014000E9014000F9094000A0
:1000A000E9014000E9014000E9014000E9014000A8
:1000B000E9014000E9014000E9014000E901400098
:1000C000E9014000E9014000E9014000E901400088
:1000D000E9014000E9014000E9014000E901400078
:1000E000E9014000E9014000E9014000E901400068
:1000F000E9014000E9014000E9014000E901400058
:10010000E9014000E9014000E9014000E901400047
:10011000E9014000E901400000000000000000008B
:10012000E9014000E9014000E9014000E901400027
:10013000E9014000E9014000E9014000E901400017
:10014000E9014000E9014000E9014000E901400007
:10015000E9014000E9014000E9014000E9014000F7
:10016000E9014000E901400010B5054C237833B99E
:10017000044B13B10448AFF300800123237010BD7A
:1001800088004020000000005C1F40000C4B43B181
:100190000C480D4910B5AFF300800C48036823B933
:1001A00010BD0A48036833B97047094B002BF7D0DC
:1001B000BDE810401847064B002BF5D0184700BF8C
:1001C000000000005C1F40008C0040205C1F4000CD
:1001D0000000000008B5024B9847024B984708BD45
:1001E000250340005D0D4000FEE7000008B5104B00
:1001F000104A9A4209D00E4B0E4A03E0116819606A
:10020000043304320C498B42F8D30C4B02E0002239
:100210001A6004330A4A9342F9D30A4A0A4B23F07C
:100220007F039360094B9847094B9847FEE700BF4F
:10023000000040205C1F40008800402088004020D3
:10024000E400402000ED00E0000040007D0D400093
:10025000450C400008B5084B9B6913F4000F03D10F
:100260004FF40002044B1A61044B984702460449BC
:100270000448054B984708BD00060E40F5094000AC
:1002800000C00040C4004020850440000F4B1A6F9E
:1002900022F400121A675A6F22F400125A674FF4C0
:1002A00000125A600A4AD2F8143143F01003C2F81F
:1002B0001431084B1A6F42F010021A675A6F42F05D
:1002C00010025A6710225A60704700BF000E0E409D
:1002D0000080084000100E40044B9B6913F4804FCF
:1002E00003D14FF48042014B1A61704700060E4063
:1002F00008B5064B9847064B9847064B9847024669
:1003000005490648064B984708BD00BFD902400082
:100310008D024000210C400000800240B8004020C7
:100320007506400008B5064B9847064A536843F4E3
:1003300000435360044B9847044B984708BD00BFE7
:10034000A507400050180E4055024000F102400041
:10035000EFF31083036072B6BFF35F8F7047BFF394
:100360005F8F036883F310887047000070B51646EE
:1003700004460D46002818BF002914BF01200020A4
:1003800034220449044B98472368324629462046C4
:10039000984770BDE81D4000E906400070B516465C
:1003A00004460D46002818BF002914BF0120002074
:1003B0003D220449044B984763683246294620464B
:1003C000984770BDE81D4000E9064000F8B5076891
:1003D00017B13C4600260BE00E4B9847F8BDA568C8
:1003E0002B449B1A01338D68AB4209D22646246800
:1003F00034B163689342F2D8A5689B1A2B44F2E7A4
:10040000BC4203D03046044B9847F8BD014B984797
:10041000F8BD00BF0507400031074000F8B544694A
:10042000066901360661037E13F0010F05D1037ED4
:1004300013F0020F01D1054609E0037E43F00203E9
:100440000376F8BD6F69E368204698473C469CB147
:100450006368F31AA26893420ED305F11407384675
:10046000064B9847237C012BECD16660324621462F
:100470003846034B9847E5E7F8BD00BF3907400011
:10048000CD03400038B504460D46002818BF0029AA
:1004900014BF012000203B220549064B98472946FE
:1004A0002046054B984700202061044B236038BD4F
:1004B000FC1D4000E90640000D0940001D044000FD
:1004C00010B5044653220949003018BF0120084BDB
:1004D00098472046074B984720B92046064B984737
:1004E000002010BD6FF0100010BD00BFFC1D4000CB
:1004F000E9064000D1094000C909400070B582B04A
:1005000004460D46002818BF002914BF0120002012
:100510007A221D491D4B9847237E43F00103237621
:1005200004F1140629463046194B984788B92369C7
:100530006B60226929463046164B9847237E03F0AC
:10054000FE032376237E13F0020F0ED1002002B0AB
:1005500070BD237E03F0FE0323767F220A4900202C
:100560000A4B98476FF01100F1E701A80A4B984732
:10057000237E03F0FD0323762046084B984701A80D
:10058000074B98470020E2E7FC1D4000E9064000C9
:10059000EF064000CD03400051034000DD0940005C
:1005A0005F034000F8B5164605460F46002818BF01
:1005B000002902D00ABB002000E00020F1221049EF
:1005C000104B984705F1080420460F4B9847002828
:1005D000F8D00025795D20460C4B984720460A4B01
:1005E00098470028FAD00135B542F3D32046084B8E
:1005F00098470028FAD02846F8BD0120DEE700BF62
:10060000141E4000E9064000A90B4000610B4000A9
:10061000D10B40002DE9F0411746054688460028D9
:1006200018BF002902D0D2B9002000E000204FF40A
:1006300086720C490C4B9847002605F108042046A9
:100640000A4B98470028F8D02046094B984708F8ED
:1006500006000136BE42F0D33046BDE8F0810120ED
:10066000E5E700BF141E4000E9064000F90B40001A
:10067000850B400038B504460D46002818BF0029F8
:1006800014BF0120002034220749084B984729460F
:1006900004F10800064B9847034618B9054A626002
:1006A000054A2260184638BD141E4000E906400085
:1006B000F50A400015064000A505400010B50446A7
:1006C00053220649003018BF0120054B984704F11A
:1006D0000800044B9847002010BD00BF141E4000C6
:1006E000E90640002D0B400000B900BE70470368CA
:1006F0001BB18B4203D01B68FAE700207047012032
:100700007047000038B504460D46064B984780F008
:10071000010039220449C0B2044B984723682B607A
:10072000256038BDEF064000301E4000E90640005D
:1007300003680B600160704703681BB11A680260B0
:1007400018467047002070470346064A126822B1D7
:10075000044A10680344136070470349014A11605A
:10076000F6E700BFA4004020E80640204FF0FF302D
:1007700070474FF400534B600020704701207047D2
:100780000020704743B2002B09DB5B0900F01F001B
:10079000012202FA00F04033014A42F82300704778
:1007A00000E100E000B583B001A80E4B98470E4A67
:1007B000D2F8883043F47003C2F88830BFF34F8F0B
:1007C000BFF36F8F01A8094B9847094A136823F4B8
:1007D000706343F4C0631360064B984703B05DF841
:1007E00004FB00BF5103400000ED00E05F03400048
:1007F000000C0E40950840000E490A6A22F00202E1
:100800000D4B13430B620B4B9B6E13F0010FFAD091
:10081000084B196A094A0A431A62996A084A0A4047
:100820009A62084A9A62034B9B6E13F0020FFAD049
:10083000704700BF00060E40013E37000000370140
:10084000FFFF00F8013F1820114A136B23F07003DB
:1008500013630F4B9B6E13F0080FFAD00C4A136B07
:1008600023F4407343F480731363094B9B6E13F0BE
:10087000080FFAD0064A136B23F0030343F0020378
:100880001363034B9B6E13F0080FFAD0704700BF41
:1008900000060E4008B5024B9847024B984708BD2A
:1008A000F90740004908400000233BB10020704791
:1008B00003EBC304A300084618440CE010B403EB98
:1008C000C3018A0005498A588242F1D00133DBB264
:1008D000002BF4D000205DF8044B7047000040204E
:1008E000034B984200D07047024B1960FBE700BFF2
:1008F00000C00040A800402008B5C3681B6A13F080
:10090000100F00D108BD03689847FBE7F8B507460C
:100910000C460846274B984705468668FC6091229E
:1009200025490120254B984716F4004F01D046F485
:10093000142666606B696361AB69A361EB6823632E
:10094000EB69E361102363622B69C4F8D830394640
:1009500020461B4B984795F90430002B0DDB5A09B4
:1009600003F01F03012101FA03F32032154941F876
:100970002230BFF34F8FBFF36F8F95F90430002BF8
:1009800009DB5A0903F01F03012101FA03F3603266
:100990000C4941F8223095F90430002B08DB590945
:1009A00003F01F03012202FA03F3064A42F8213042
:1009B0000020F8BDA9084000501E4000E906400094
:1009C000E108400000E100E0C36805221A607047BA
:1009D000C368186AC0F300407047000008B5C068DB
:1009E000024B98470079024B984708BDA908400080
:1009F000850740000020704708B5024B1868024B7D
:100A0000984708BDA8004020F908400010B50446EA
:100A100040F22B220549003018BF0120044B9847B3
:100A200004482044C0F3873010BD00BF701E400052
:100A3000E906400000C0FDBF10B5044640F2872221
:100A40000E49003018BF01200D4B984720460D4B32
:100A50009847002343B140F2912208490020084BF7
:100A600098470023184610BD03EB43018A0006494E
:100A70008A5C9042F6D00133DBB2EBE7701E400097
:100A8000E90640000D0A4000641E400010B504460F
:100A900040F29E221149003018BF0120104B9847A8
:100AA0002046104B9847104BC4F8E4300023636095
:100AB0006362A362AC2222604FF4807222604FF422
:100AC0000022226000EB40008100084A0A4452687C
:100AD0006260074A2262184610BD00BF701E4000C7
:100AE000E9064000390A400000415355641E4000A9
:100AF00051000300F8B50C46094E0746BD223146A9
:100B0000003018BF0120074DA847BE223146201CE7
:100B100018BF0120A8473C602046034B9847F8BD0A
:100B2000701E4000E90640008D0A400070B50A4E74
:100B3000044640F205123146003018BF0120074D2F
:100B4000A847246840F2C7223146201C18BF012064
:100B5000A8475023236070BD701E4000E906400086
:100B600038B50C4605464FF4D4720449003018BF1E
:100B70000120034B98472B68DC6138BD701E400094
:100B8000E906400010B504464FF4DD720449003018
:100B900018BF0120034B984723689869C0B210BD65
:100BA000701E4000E906400010B5044640F2C31232
:100BB0000549003018BF0120044B98472368586945
:100BC000C0F3400010BD00BF701E4000E9064000A9
:100BD00010B504464FF4E6720549003018BF0120F5
:100BE000044B984723685869C0F3402010BD00BFEC
:100BF000701E4000E906400010B504464FF4EF7245
:100C00000549003018BF0120044B984723685869F4
:100C100000F0010010BD00BF701E4000E90640005A
:100C2000002070477047000008B5034B196903485E
:100C3000034B984708BD00BFC40040208C1E4000F5
:100C4000D50D400000B58BB00E4B984740F2E7330E
:100C500007930D4B089301238DF824304FF4FA626B
:100C600002920A4A03928DF81030094C05A92046D9
:100C7000084DA84769462046A8472046064B984796
:100C8000FEE700BFD5014000290C4000250C4000C4
:100C9000C4004020FD044000C104400058B908B51C
:100CA0000B4611461846054B9847002800DB08BD47
:100CB0004FF0FF3008BD4FF0FF307047150D40007A
:100CC000013802280BD808B50B4611461846054BCB
:100CD0009847002800DB08BD4FF0FF3008BD4FF0FB
:100CE000FF307047390D400070B50646064D2B6841
:100CF00000219868054CA0472B6800215868A04740
:100D0000034B1E6070BD00BF24004020050E400054
:100D1000AC00402008B5064B1B6833B10A460146BB
:100D200092B21846034B984708BD002008BD00BF8B
:100D3000AC0040209D03400008B5064B1B6833B152
:100D40000A46014692B21846034B984708BD002058
:100D500008BD00BFAC0040206D03400010B5044C3E
:100D60002046044B98472046034B984710BD00BFD0
:100D7000B8004020BD064000E90C400070B50D4EA3
:100D80000D4CA41BA4100025A54209D10B4E0C4C00
:100D900001F0D4F8A41BA4100025A54205D170BD14
:100DA00056F8253098470135EEE756F82530984734
:100DB0000135F2E7481F4000481F4000481F40002F
:100DC0004C1F400002440346934200D1704703F891
:100DD000011BF9E70FB40A4B13B51C6824B1A369D2
:100DE00013B9204600F076FA05AB049AA168019386
:100DF000204600F039FC02B0BDE8104004B0704756
:100E00002400402000294FF480630CBF02220022FE
:100E100000F000B82DE9F7431D46514B1E6804460B
:100E20000F46904626B1B36913B9304600F052FA26
:100E30004C4B9C4252D17468B8F1020F06D0B8F105
:100E4000010F00F28980002DC0F2868021463046D5
:100E500000F0D6F9616B41B104F14403994202D02C
:100E6000304600F02DFB002363630023A361636021
:100E7000A3891B0603D52169304600F021FBA38915
:100E800023F44A6323F00303B8F1020FA3815DD07A
:100E900001AB6A462146304600F0A6FAA389184302
:100EA000A0812DBB009D284600F002FB07460028CC
:100EB0004ED1DDF80090A9453CD14FF0FF30A38919
:100EC00043F00203A3810023A36004F147032360DE
:100ED00023610123636103B0BDE8F083224B9C4290
:100EE00001D1B468A8E7214B9C4208BFF468A3E78E
:100EF000002FD8D0B36913B9304600F0EBF9B8F140
:100F0000010F08BFA389276004BF43F00103A38139
:100F1000A389276113F0080065611BD013F001005D
:100F200018BF6D424FF000031DBFA360A5611846B6
:100F3000A560D0E7484600F0BBFA07460028BCD0C1
:100F4000A38943F08003A3814D46D3E70020B6E791
:100F5000A946F5E7A060BEE74FF0FF30BBE700BF52
:100F600024004020C81E4000E81E4000A81E40008B
:100F7000F8B50E461446054618B183690BB900F062
:100F8000A9F9214B9C422AD16C68A369A360A3896B
:100F90001A072ED5236963B323692068C01A6369D1
:100FA000F6B29842374604DB2146284600F028F97D
:100FB00028BBA368013BA36023685A1C22601E70F3
:100FC00063690130984204D0A389DB0719D50A2E42
:100FD00017D12146284600F013F990B10FE00B4BD2
:100FE0009C4201D1AC68D0E7094B9C4208BFEC6839
:100FF000CBE72146284600F00DF80028CCD04FF072
:10100000FF373846F8BD00BFC81E4000E81E40004C
:10101000A81E4000324B70B51D6806460C4625B12F
:10102000AB6913B9284600F055F92E4B9C420FD1FD
:101030006C68B4F90C309AB215072CD4D00611D4D0
:101040000922326043F04003A3814FF0FF3070BDAE
:10105000254B9C4201D1AC68EBE7244B9C4208BF76
:10106000EC68E6E7510712D5616B41B104F1440326
:10107000994202D0304600F023FA00236363A3892B
:1010800023F02403A3810023636023692360A389E1
:1010900043F00803A38123694BB9A38903F42073A8
:1010A000B3F5007F03D02146304600F0C1F9A28994
:1010B00012F001030CD00023A36063695B42A361BB
:1010C000236953B9B4F90C3013F08000BAD170BD64
:1010D000920758BF6369A360F2E70020F7E700BFFB
:1010E00024004020C81E4000E81E4000A81E40000A
:1010F0008A892DE9F041054610070C465AD44B6801
:10110000002B05DC0B6C002B02DC0020BDE8F0811D
:10111000E66A002EF9D0002312F480522F682B606B
:1011200033D0606DA3895A0705D56368C01A636B15
:101130000BB1236CC01A00230246E66A216A2846D6
:10114000B047431CA38906D129681D294BD82B4AD7
:10115000CA40D60747D500226260D90422692260BE
:1011600004D5421C01D12B6803B96065616B2F6007
:101170000029CAD004F14403994202D0284600F065
:101180009FF900206063BDE8F081216A01232846B1
:10119000B047411CC6D12B68002BC3D01D2B01D0FA
:1011A000162B01D12F60B0E7A38943F04003A38140
:1011B000BDE8F0810F69002FA7D093070E6808BF24
:1011C0004B690F6018BF0023A6EB07088B60B8F1CE
:1011D000000F9ADD43463A46216AA66A2846B04780
:1011E000002807DCA38943F04003A3814FF0FF30C0
:1011F000BDE8F0810744A8EB0008E8E701004020C3
:1012000038B50B6905460C46DBB118B183690BB9DB
:1012100000F060F80C4B9C4209D16C68B4F90C30BA
:101220007BB121462846BDE83840FFF761BF074B38
:101230009C4201D1AC68F1E7054B9C4208BFEC68C9
:10124000ECE7002038BD00BFC81E4000E81E40008B
:10125000A81E4000014900F0A9B800BF01124000DB
:10126000002310B5044603604360836081814366B8
:10127000C281036143618361194608225C30FFF734
:10128000A1FD054B6362054BA362054BE362054B71
:101290002462236310BD00BFE11B4000031C40001B
:1012A0003B1C40005F1C400070B54A1E682555433A
:1012B0000E4605F1740100F051F9044640B10021D9
:1012C00080E842000C30A06005F16802FFF77AFD6B
:1012D000204670BD836910B5044633BB8364C36484
:1012E0000365124B124A1B688262984204BF0123B5
:1012F000836100F01FF86060204600F01BF8A060DA
:10130000204600F017F80022E06004216068FFF733
:10131000A7FF01220921A068FFF7A2FF02221221E4
:10132000E068FFF79DFF0123A36110BDA41E4000EC
:1013300055124000F8B51C4B1E68B369074613B937
:101340003046FFF7C7FF4836B4687368013B03D5E2
:10135000336833B13668F7E7B4F90C506DB16834CF
:10136000F4E704213846FFF79FFF30600028F1D1F1
:101370000C233B6004462046F8BD4FF6FF73E38123
:101380000123A38165662560A560656025616561AF
:10139000A5610822294604F15C00FFF713FD65638F
:1013A000A563A564E564E6E7A41E40002DE9F843C3
:1013B0008046894600F14804002614B93046BDE84D
:1013C000F883A5686768013F01D52468F5E7AB8914
:1013D000012B07D9B5F90E30013303D02946404619
:1013E000C84706436835EEE770B50E46B1F90E10F2
:1013F000002990B014461D4607DA00232B60B389FC
:101400001A0610D44FF480630EE001AA00F04EFCDF
:101410000028F2DB029A02F47042A2F500535A420D
:101420005A412A60EEE740230020236010B070BDCF
:101430008B8973B59D0706460C4607D504F1470313
:10144000236023610123636102B070BD01AB6A4672
:10145000FFF7CAFF00990546304600F07FF848B90B
:10146000B4F90C309A05EFD423F0030343F00203E0
:10147000A381E3E70D4BB362A389206043F08003AF
:10148000A381009B6361019B20615BB1B4F90E10E5
:10149000304600F01DFC28B1A38923F0030343F07C
:1014A0000103A381A3891D43A581CDE75512400007
:1014B000024B0146186800F051B800BF24004020DC
:1014C00038B50546002945D051F8043C0C1F002BC7
:1014D000B8BFE41800F074FC1F4A1368104633B913
:1014E000636014602846BDE8384000F06ABCA3423F
:1014F0000CD921686218934204BF1A685B68636064
:1015000004BF521822600460ECE713465A680AB11F
:10151000A242FAD919685818A0420BD12068014498
:10152000581882421960DDD1106852685A6001442F
:101530001960D7E702D90C232B60D3E72068211864
:101540008A4204BF11685268626004BF09182160B2
:101550005C60C7E738BD00BFB000402070B5CD1C4F
:1015600025F0030508350C2D38BF0C25002D064647
:1015700001DBA94203D90C233360002070BD00F0C9
:101580001FFC234A1468214691B9224C23681BB9D9
:10159000304600F015FB20602946304600F010FB75
:1015A000431C26D10C233360304600F00AFCE4E7EC
:1015B0000B685B1B1AD40B2B0FD90B60CD50CC18CA
:1015C000304600F0FEFB04F10B00231D20F0070065
:1015D000C31A1BD05A42E25070BD8C420DBF6368E3
:1015E0004B686360136018BF0C46E9E70C46496816
:1015F000CAE7C41C24F00304A04205D0211A3046D7
:1016000000F0DEFA0130CDD02560D9E770BD00BF13
:10161000B0004020B40040209368013B002B10B480
:10162000936008DA9469A34202DBCBB20A2B02D1A1
:1016300010BCFFF79DBC1368581C10601970C8B22D
:1016400010BC7047F8B506460F461446D518AC4294
:1016500001D1002007E03A4614F8011B3046FFF79D
:10166000DBFF431CF3D1F8BD2DE9F04F9DB00C46D4
:1016700017460393064618B183690BB9FFF72AFE94
:101680007C4B9C4257D17468A38918075DD52369A8
:10169000002B5AD00023099320238DF829303023C2
:1016A0008DF82A304FF0010BB846454615F8013B3E
:1016B000002B55D1B8EB070A0BD053463A462146CA
:1016C0003046FFF7BFFF013000F0C480099B534450
:1016D000099398F80030002B00F0BC8000234FF0F5
:1016E000FF3204930793059206938DF853301A93B3
:1016F00005222978604800F013FB05F10108049BDE
:10170000002831D1D90644BF20228DF853201A0772
:1017100044BF2B228DF853202A782A2A2CD0079AEE
:1017200000210A20A846013598F80030303B092BEB
:101730006DD971B326E0514B9C4201D1B468A3E747
:101740004F4B9C4208BFF4689EE721463046FFF7A6
:1017500061FC00289ED04FF0FF301DB0BDE8F08F37
:10176000252BA7D0A846A0E7434A801A0BFA00F021
:10177000184304904546BBE7039A111D1268039174
:10178000002A01DB079204E0524243F00203079271
:10179000049398F800302E2B10D198F801302A2BA2
:1017A00008F1010137D1039B1A1D1B680392002B1E
:1017B000B8BF4FF0FF3308F102080593314D98F898
:1017C00000100322284600F0ABFA40B14023401B32
:1017D00003FA00F0049B0343049308F1010898F80E
:1017E000001029488DF82810062208F1010700F0A2
:1017F00097FA002834D0254B03BB039B073323F013
:10180000070308330393099B4B4409934CE700FB00
:101810000232012186E70023059318460A258846EF
:10182000013198F80020303A092A03D9002BC5D09D
:101830000590C3E705FB00200123F0E703AB00930D
:101840002246134B04A93046AFF30080B0F1FF3FAE
:101850008146D8D1A3895B063FF57DAF09987CE727
:1018600003AB009322460A4B04A9304600F088F8E7
:10187000ECE700BFC81E4000081F4000E81E400003
:10188000A81E40000E1F4000121F40000000000074
:10189000451640002DE9F04791461F468A680B69BE
:1018A000DDF820809342B8BF1346C9F8003091F8A4
:1018B000432006460C4612B10133C9F800302368B4
:1018C000990642BFD9F800300233C9F800302568C4
:1018D00015F0060507D104F1190AE368D9F80020CC
:1018E0009B1A9D4229DB94F843302268003318BFCD
:1018F000012392062ED404F1430239463046C047F4
:10190000013021D02368E568D9F8002003F00603F0
:10191000042B08BFAD1AA36822690CBF25EAE57540
:1019200000259342C4BF9B1AED184FF000091A34EA
:101930004D451BD10020BDE8F087012352463946B2
:101940003046C047013003D14FF0FF30BDE8F0878B
:101950000135C2E7E1185A1C302081F843002244C7
:1019600094F8451082F843100233C4E7012322465D
:1019700039463046C0470130E6D009F10109D7E7C2
:101980002DE9F04317460A7E85B06E2A9846064632
:101990000C460C9B01F1430E00F0BC801AD8632A60
:1019A0002ED00AD8002A00F0C880582A00F08A8079
:1019B00004F1420584F842202AE0642A01D0692A11
:1019C000F6D121681A6811F0800F23D0111D19601B
:1019D000136827E0732A00F0B48008D86F2A2AD051
:1019E000702AE5D10A6842F020020A6003E0752AF5
:1019F00021D0782ADCD1782284F845206E4964E031
:101A00001A6801F14205111D1960136884F842300B
:101A10000123A3E011F0400F02F104011960D7D0B7
:101A2000B2F90030002B03DA2D225B4284F8432008
:101A300062490A2217E02068196810F0800F03D06D
:101A4000081D18600B6806E010F0400F01F104005B
:101A50001860F7D00B8859496F2A14BF0A22082250
:101A6000002084F843006568A560002DC0F29C80CA
:101A7000206820F004002060002B3FD1002D40F0B2
:101A800095807546082A0BD12368DA0708D52369A3
:101A900062689A42DEBF302305F8013C05F1FF354C
:101AA000AEEB05032361CDF800803B4603AA214637
:101AB0003046FFF7EFFE013055D14FF0FF3005B053
:101AC000BDE8F08381F845203C492268186812F08F
:101AD000800F00F104051D6001D0036802E0550687
:101AE000FBD50388D00744BF42F0200222601BB917
:101AF000226822F0200222601022B1E77546B3FB73
:101B0000F2F002FB1033CB5C05F8013D03460028E0
:101B1000F5D1B7E708681A68496910F0800F04D05A
:101B2000101D18601368196007E010F0400F02F1F3
:101B3000040018601368F6D01980002323617546ED
:101B4000B1E71A68111D19601568626800212846FE
:101B500000F0E6F808B1401B606063682361002371
:101B600084F843309FE723692A4639463046C04708
:101B70000130A2D023689B0707D5002504F119097D
:101B8000E368039A9B1A9D4205DBE068039B984239
:101B9000B8BF184693E701234A4639463046C04746
:101BA00001308AD00135EBE7002BA7D10B7884F800
:101BB000423004F1420565E72A1F4000191F40002A
:101BC00038B5064C0023054608462360FEF7BCFDE9
:101BD000431C02D1236803B12B6038BDE0004020D4
:101BE00010B50C46B1F90E1000F0ECF80028ABBFB0
:101BF000636DA3891B1823F48053ACBF6365A38175
:101C000010BD2DE9F0411F468B89DB0505460C46CA
:101C1000164605D502230022B1F90E1000F068F82F
:101C2000A389B4F90E1023F48053A38132463B46B6
:101C30002846BDE8F04100F017B810B50C46B1F9E0
:101C40000E1000F055F8431CA38915BF606523F4FE
:101C5000805343F48053A38118BFA38110BDB1F911
:101C60000E1000F013B8000038B5074C05460846C2
:101C70001146002222601A46FFF722F8431C02D1C7
:101C8000236803B12B6038BDE000402038B5064C16
:101C90000023054608462360FEF768FD431C02D179
:101CA000236803B12B6038BDE000402038B5074CF5
:101CB00000230546084611462360FEF75AFD431CE3
:101CC00002D1236803B12B6038BD00BFE000402083
:101CD00038B5064C0023054608462360FEF74EFD46
:101CE000431C02D1236803B12B6038BDE0004020C3
:101CF00038B5074C054608461146002222601A46B0
:101D0000FEF73EFD431C02D1236803B12B6038BDB2
:101D1000E000402000000000000000000000000083
:101D200001F0FF01102A2BDB10F0070F08D010F88C
:101D3000013B013A8B422DD010F0070F42B3F6D190
:101D4000F0B441EA012141EA014122F007047FF0A9
:101D500000070023F0E80256083C85EA010586EA00
:101D6000010685FA47F5A3FA87F586FA47F6A5FA3C
:101D700087F68EB9EED1F0BC01F0FF0102F0070248
:101D800032B110F8013B013A83EA010313B1F8D1F3
:101D90000020704701387047002D06BF35460338D4
:101DA000073815F0010F07D1013015F4807F02BF0D
:101DB000013015F4C03F0130F0BC0138704700BF5E
:101DC0007047704738B5074C054608461146002253
:101DD00022601A46FEF762FF431C02D1236803B15A
:101DE0002B6038BDE00040202E2E2F68616C2F73D1
:101DF00072632F68616C5F696F2E63002E2E2F68EF
:101E0000616C2F7372632F68616C5F74696D6572AA
:101E10002E6300002E2E2F68616C2F7372632F6863
:101E2000616C5F75736172745F73796E632E6300AA
:101E30002E2E2F68616C2F7574696C732F7372630B
:101E40002F7574696C735F6C6973742E6300000086
:101E50002E2E2F68706C2F74632F68706C5F746304
:101E60002E63000001000000C008100051000300B4
:101E70002E2E2F68706C2F75736172742F68706CC2
:101E80005F75736172742E630000000054696D65A4
:101E90007220302074696D652069733A20256420B2
:101EA0000A000000280040200000000000000000A0
:101EB0000000000000000000000000000000000022
:101EC0000000000000000000000000000000000012
:101ED0000000000000000000000000000000000002
:101EE00000000000000000000000000000000000F2
:101EF00000000000000000000000000000000000E2
:101F00000000000000000000232D302B2000686C32
:101F10004C0065666745464700303132333435360C
:101F20003738394142434445460030313233343545
:101F3000363738396162636465660000F8B500BF02
:101F4000F8BC08BC9E4670478D014000F8B500BF44
:0C1F5000F8BC08BC9E46704769014000C8
:101F5C0000C000401700000001C00000000000009D
:101F6C00000000009F240000000000003E4900001B
:101F7C00000000002800402000000000C81E4000A7
:101F8C00E81E4000A81E40000000000000000000F9
:101F9C000000000000000000000000000000000035
:101FAC000000000000000000000000000000000025
:101FBC000000000000000000000000000000000015
:101FCC000000000000000000000000000000000005
:081FDC000000000000000000FD
:0400000500400000B7
:00000001FF
