S00D000054696D65722E7372656316
S21440000010074020ED014000E9014000E9014000B2
S214400010E9014000E9014000E9014000000000001D
S214400020000000000000000000000000E901400061
S214400030E901400000000000E9014000E9014000FD
S214400040E9014000E9014000E9014000E9014000C3
S214400050E9014000E9014000E9014000E9014000B3
S214400060E901400000000000E9014000E9014000CD
S214400070E9014000E9014000E9014000E901400093
S214400080E9014000E9014000E9014000E901400083
S214400090E9014000E9014000E9014000D90940007B
S2144000A0E9014000E9014000E9014000E901400063
S2144000B0E9014000E9014000E9014000E901400053
S2144000C0E9014000E9014000E9014000E901400043
S2144000D0E9014000E9014000E9014000E901400033
S2144000E0E9014000E9014000E9014000E901400023
S2144000F0E9014000E9014000E9014000E901400013
S214400100E9014000E9014000E9014000E901400002
S214400110E9014000E9014000000000000000000046
S214400120E9014000E9014000E9014000E9014000E2
S214400130E9014000E9014000E9014000E9014000D2
S214400140E9014000E9014000E9014000E9014000C2
S214400150E9014000E9014000E9014000E9014000B2
S214400160E9014000E901400010B5054C237833B959
S214400170044B13B10448AFF300800123237010BD35
S2144001808800402000000000881640000C4B43B119
S2144001900C480D4910B5AFF300800C48036823B9EE
S2144001A010BD0A48036833B97047094B002BF7D097
S2144001B0BDE810401847064B002BF5D0184700BF47
S2144001C000000000881640008C0040208816400042
S2144001D00000000008B5024B9847024B984708BD00
S2144001E0090340007D0D4000FEE7000008B5104BB7
S2144001F0104A9A4209D00E4B0E4A03E01168196025
S214400200043304320C498B42F8D30C4B02E00022F4
S2144002101A6004330A4A9342F9D30A4A0A4B23F037
S2144002207F039360094B9847094B9847FEE700BF0A
S214400230000040208816400088004020880040206B
S2144002400C01402000ED00E0000040009D0D400005
S214400250550C400008B5084B9B6913F4000F03D1BA
S2144002604FF40002044B1A61044B98470246044977
S2144002700448054B984708BD00060E40D509400087
S21440028000C00040C4004020690440000A4B1A6F7A
S21440029022F020021A675A6F42F020025A67202244
S2144002A05A601A6F22F040021A675A6F42F04002B4
S2144002B05A6740225A607047000E0E40044B9B69B6
S2144002C013F4807F03D14FF48072014B1A6170475C
S2144002D000060E4008B5064B9847064B9847024620
S2144002E005490648064B9847064B984708BD00BF49
S2144002F0BD024000210C4000000A0E40B8004020DD
S214400300590640008D02400008B5064B9847064AFD
S214400310536843F400435360044B9847044B984754
S21440032008BD00BF8507400050180E4055024000EB
S214400330D5024000EFF31083036072B6BFF35F8FC1
S2144003407047BFF35F8F036883F3108870470000E1
S21440035070B5164604460D46002818BF002914BF3F
S2144003600120002034220449044B98472368324633
S21440037029462046984770BD64154000CD0640008B
S21440038070B5164604460D46002818BF002914BF0F
S214400390012000203D220449044B984763683246BA
S2144003A029462046984770BD64154000CD0640005B
S2144003B0F8B5076817B13C4600260BE00E4B984749
S2144003C0F8BDA5682B449B1A01338D68AB4209D211
S2144003D02646246834B163689342F2D8A5689B1ACF
S2144003E02B44F2E7BC4203D03046044B9847F8BD56
S2144003F0014B9847F8BD00BFE9064000150740008E
S214400400F8B54469066901360661037E13F0010FAC
S21440041005D1037E13F0020F01D1054609E0037EA5
S21440042043F002030376F8BD6F69E36820469847B9
S2144004303C469CB16368F31AA26893420ED305F11A
S21440044014073846064B9847237C012BECD1666050
S214400450324621463846034B9847E5E7F8BD00BF8D
S2144004601D074000B103400038B504460D4600283D
S21440047018BF002914BF012000203B220549064B27
S214400480984729462046054B984700202061044B54
S214400490236038BD78154000CD064000ED0840008A
S2144004A00104400010B5044653220949003018BFE5
S2144004B00120084B98472046074B984720B92046CE
S2144004C0064B9847002010BD6FF0100010BD00BFCF
S2144004D078154000CD064000B1094000A90940000B
S2144004E070B582B004460D46002818BF002914BFD8
S2144004F0012000207A221D491D4B9847237E43F059
S2144005000103237604F1140629463046194B9847D2
S21440051088B923696B60226929463046164B98474E
S214400520237E03F0FE032376237E13F0020F0ED1C4
S214400530002002B070BD237E03F0FE0323767F22A8
S2144005400A4900200A4B98476FF01100F1E701A8CE
S2144005500A4B9847237E03F0FD0323762046084B3C
S214400560984701A8074B98470020E2E778154000D7
S214400570CD064000D3064000B1034000350340009E
S214400580BD09400043034000F8B5164605460F46F1
S214400590002818BF002902D00ABB002000E0002037
S2144005A0F1221049104B984705F1080420460F4B9E
S2144005B098470028F8D00025795D20460C4B984790
S2144005C020460A4B98470028FAD00135B542F3D367
S2144005D02046084B98470028FAD02846F8BD012008
S2144005E0DEE700BF90154000CD064000A90B400056
S2144005F0610B4000D10B40002DE9F04117460546FF
S2144006008846002818BF002902D0D2B9002000E052
S21440061000204FF486720C490C4B9847002605F193
S214400620080420460A4B98470028F8D02046094B35
S214400630984708F806000136BE42F0D33046BDE87B
S214400640F0810120E5E700BF90154000CD06400050
S214400650F90B4000850B400038B504460D4600288F
S21440066018BF002914BF0120002034220749084B38
S2144006709847294604F10800064B9847034618B9A0
S214400680054A6260054A2260184638BD901540000B
S214400690CD064000F50A4000F905400089054000B7
S2144006A010B5044653220649003018BF0120054BBA
S2144006B0984704F10800044B9847002010BD00BF3F
S2144006C090154000CD0640002D0B400000B900BEFE
S2144006D0704703681BB18B4203D01B68FAE70020C3
S2144006E0704701207047000038B504460D46064B5B
S2144006F0984780F0010039220449C0B2044B98471D
S21440070023682B60256038BDD3064000AC154000FA
S214400710CD06400003680B600160704703681BB15C
S2144007201A68026018467047002070470346064A1B
S214400730126822B1044A10680344136070470349A4
S214400740014A1160F6E700BFA40040201007402091
S2144007504FF0FF3070474FF400534B600020704717
S2144007600020704743B2002B09DB5B0900F01F00F6
S214400770012202FA00F04033014A42F82300704753
S21440078000E100E000B583B001A80E4B98470E4A42
S214400790D2F8883043F47003C2F88830BFF34F8FE6
S2144007A0BFF36F8F01A8094B9847094A136823F493
S2144007B0706343F4C0631360064B984703B05DF81C
S2144007C004FB00BF3503400000ED00E0430340005B
S2144007D0000C0E40750840000E490A6A22F00202DC
S2144007E00D4B13430B620B4B9B6E13F0010FFAD06D
S2144007F0084B196A094A0A431A62996A084A0A4023
S2144008009A62084A9A62034B9B6E13F0020FFAD024
S214400810704700BF00060E40013E3700000037011B
S214400820FFFF00F8013F1820114A136B23F07003B6
S21440083013630F4B9B6E13F0080FFAD00C4A136BE2
S21440084023F4407343F480731363094B9B6E13F099
S214400850080FFAD0064A136B23F0030343F0020353
S2144008601363034B9B6E13F0080FFAD0704700BF1C
S21440087000060E4008B5024B9847024B984708BD05
S214400880D90740002908400000233BB100207047AC
S21440089003EBC304A300084618440CE010B403EB73
S2144008A0C3018A0005498A588242F1D00133DBB23F
S2144008B0002BF4D000205DF8044B70470000402029
S2144008C0034B984200D07047024B1960FBE700BFCD
S2144008D000C00040A800402008B5C3681B6A13F05B
S2144008E0100F00D108BD03689847FBE7F8B50746E8
S2144008F00C460846274B984705468668FC6091227A
S21440090025490120254B984716F4004F01D046F460
S214400910142666606B696361AB69A361EB68236309
S214400920EB69E361102363622B69C4F8D83039461B
S21440093020461B4B984795F90430002B0DDB5A098F
S21440094003F01F03012101FA03F32032154941F851
S2144009502230BFF34F8FBFF36F8F95F90430002BD3
S21440096009DB5A0903F01F03012101FA03F3603241
S2144009700C4941F8223095F90430002B08DB590920
S21440098003F01F03012202FA03F3064A42F821301D
S2144009900020F8BD89084000CC154000CD06400038
S2144009A0C108400000E100E0C36805221A607047B5
S2144009B0C368186AC0F300407047000008B5C068B6
S2144009C0024B98470079024B984708BD890840007B
S2144009D0650740000020704708B5024B1868024B78
S2144009E0984708BDA8004020D908400010B50446E6
S2144009F040F219221249003018BF0120114B984787
S214400A00114B9C4213D003F500739C4211D003F562
S214400A1080539C420FD003F500739C420DD003F5E3
S214400A2000739C4201D0FF2010BD042010BD002062
S214400A3010BD012010BD022010BD032010BD00BF18
S214400A40EC154000CD06400000080E4010B50446A8
S214400A504FF427720E49003018BF01200D4B9847BF
S214400A6020460D4B9847002343B140F2A622084942
S214400A700020084B98470023184610BD03EB43015F
S214400A808A0006498A5C9042F6D00133DBB2EBE737
S214400A90EC154000CD064000ED094000E015400052
S214400AA010B5044640F2B3220D49003018BF01206D
S214400AB00C4B984720460C4B98470C4BC4F8E430F8
S214400AC0AC2323604FF48073236000EB4000820029
S214400AD0074B13445B68636051232362002010BDBC
S214400AE0EC154000CD0640004D0A400000524155EE
S214400AF0E0154000F8B50C46094E0746A922314697
S214400B00003018BF0120074DA847AA223146201CB6
S214400B1018BF0120A8473C602046034B9847F8BDC5
S214400B20EC154000CD064000A10A400070B50A4EC4
S214400B300446F2223146003018BF0120074DA84730
S214400B40246840F2D7223146201C18BF0120A8470F
S214400B505023236070BD00BFEC154000CD0640001A
S214400B6038B50C46054640F295120449003018BF89
S214400B700120034B98472B68DC6138BDEC154000DC
S214400B80CD06400010B5044640F2A7120449003096
S214400B9018BF0120034B984723689869C0B210BD20
S214400BA0EC154000CD06400010B504464FF4D87210
S214400BB00549003018BF0120044B98472368586900
S214400BC0C0F3400010BD00BFEC154000CD0640000D
S214400BD010B5044640F2B9120549003018BF01204E
S214400BE0044B984723685869C0F3402010BD00BFA7
S214400BF0EC154000CD06400010B5044640F2CB123E
S214400C000549003018BF0120044B984723685869AF
S214400C1000F0010010BD00BFEC154000CD064000BE
S214400C2000207047044A936B03F00203D94301F057
S214400C30020111635363704700140E40044A936BDD
S214400C4003F00403D94301F0040111635363704772
S214400C5000140E4008B5104B9847104B02221A61FC
S214400C6004221A610E4964238B600E4BCB6001232D
S214400C700B740D4C4FF41672A2600C4AE26023745B
S214400C800B4D28460B4EB04721462846B0472846CF
S214400C90094B9847FEE700BFD501400000140E40C0
S214400CA0F4004020250C4000E00040203D0C400071
S214400CB0C4004020E1044000A504400058B908B5EF
S214400CC00B4611461846054B9847002800DB08BDE2
S214400CD04FF0FF3008BD4FF0FF307047350D4000F5
S214400CE0013802280BD808B50B4611461846054B66
S214400CF09847002800DB08BD4FF0FF3008BD4FF096
S214400D00FF307047590D400070B50646064D2B68BB
S214400D1000219868054CA0472B6800215868A047DA
S214400D20034B1E6070BD00BF24004020F50D400000
S214400D30AC00402008B5064B1B6833B10A46014656
S214400D4092B21846034B984708BD002008BD00BF26
S214400D50AC0040208103400008B5064B1B6833B109
S214400D600A46014692B21846034B984708BD0020F3
S214400D7008BD00BFAC0040205103400010B5044CF5
S214400D802046044B98472046034B984710BD00BF6B
S214400D90B8004020A1064000090D400070B50D4E39
S214400DA00D4CA41BA4100025A54209D10B4E0C4C9B
S214400DB000F05AFCA41BA4100025A54205D170BD26
S214400DC056F8253098470135EEE756F825309847CF
S214400DD00135F2E774164000741640007416400061
S214400DE07816400002440346934200D1704703F809
S214400DF0011BF9E700294FF480630CBF0222002252
S214400E0000F000B82DE9F7431D46514B1E680446D6
S214400E100F46904626B1B36913B9304600F092F9B2
S214400E204C4B9C4252D17468B8F1020F06D0B8F1D0
S214400E30010F00F28980002DC0F2868021463046A0
S214400E4000F016F9616B41B104F14403994202D0B7
S214400E50304600F02DFA002363630023A3616360ED
S214400E60A3891B0603D52169304600F021FAA389E1
S214400E7023F44A6323F00303B8F1020FA3815DD045
S214400E8001AB6A462146304600F0E6F9A38918438E
S214400E90A0812DBB009D284600F002FA0746002898
S214400EA04ED1DDF80090A9453CD14FF0FF30A389E4
S214400EB043F00203A3810023A36004F147032360A9
S214400EC023610123636103B0BDE8F083224B9C425B
S214400ED001D1B468A8E7214B9C4208BFF468A3E759
S214400EE0002FD8D0B36913B9304600F02BF9B8F1CB
S214400EF0010F08BFA389276004BF43F00103A38105
S214400F00A389276113F0080065611BD013F0010028
S214400F1018BF6D424FF000031DBFA360A561184681
S214400F20A560D0E7484600F0BBF907460028BCD08D
S214400F30A38943F08003A3814D46D3E70020B6E75C
S214400F40A946F5E7A060BEE74FF0FF30BBE700BF1D
S214400F50240040202816400048164000081640004E
S214400F608A892DE9F041054610070C465AD44B684D
S214400F70002B05DC0B6C002B02DC0020BDE8F0816A
S214400F80E66A002EF9D0002312F480522F682B60B8
S214400F9033D0606DA3895A0705D56368C01A636B62
S214400FA00BB1236CC01A00230246E66A216A284623
S214400FB0B047431CA38906D129681D294BD82B4A24
S214400FC0CA40D60747D500226260D904226922600B
S214400FD004D5421C01D12B6803B96065616B2F6054
S214400FE00029CAD004F14403994202D0284600F0B2
S214400FF05FF900206063BDE8F081216A012328463E
S214401000B047411CC6D12B68002BC3D01D2B01D046
S214401010162B01D12F60B0E7A38943F04003A3818C
S214401020BDE8F0810F69002FA7D093070E6808BF70
S2144010304B690F6018BF0023A6EB07088B60B8F11A
S214401040000F9ADD43463A46216AA66A2846B047CC
S214401050002807DCA38943F04003A3814FF0FF300C
S214401060BDE8F0810744A8EB0008E8E7010040200F
S21440107038B50B6905460C46DBB118B183690BB928
S21440108000F060F80C4B9C4209D16C68B4F90C3007
S2144010907BB121462846BDE83840FFF761BF074B85
S2144010A09C4201D1AC68F1E7054B9C4208BFEC6816
S2144010B0ECE7002038BD00BF281640004816400028
S2144010C008164000014900F0A9B800BF7110400062
S2144010D0002310B504460360436083608181436605
S2144010E0C281036143618361194608225C30FFF781
S2144010F079FE054B6362054BA362054BE362054BE5
S2144011002462236310BD00BF291440004B144000E6
S21440111083144000A714400070B54A1E6825554306
S2144011200E4605F1740100F011F9044640B1002165
S21440113080E842000C30A06005F16802FFF752FEDE
S214401140204670BD836910B5044633BB8364C364D0
S2144011500365124B124A1B688262984204BF012301
S214401160836100F01FF86060204600F01BF8A06026
S214401170204600F017F80022E06004216068FFF780
S214401180A7FF01220921A068FFF7A2FF0222122131
S214401190E068FFF79DFF0123A36110BD04164000E1
S2144011A0C5104000F8B51C4B1E68B369074613B916
S2144011B03046FFF7C7FF4836B4687368013B03D52F
S2144011C0336833B13668F7E7B4F90C506DB168341C
S2144011D0F4E704213846FFF79FFF30600028F1D13E
S2144011E00C233B6004462046F8BD4FF6FF73E38170
S2144011F00123A38165662560A560656025616561FC
S214401200A5610822294604F15C00FFF7EBFD656303
S214401210A563A564E564E6E7041640002DE9F843B7
S2144012208046894600F14804002614B93046BDE899
S214401230F883A5686768013F01D52468F5E7AB8960
S214401240012B07D9B5F90E30013303D02946404665
S214401250C84706436835EEE770B50E46B1F90E103E
S214401260002990B014461D4607DA00232B60B38948
S2144012701A0610D44FF480630EE001AA00F03AF943
S2144012800028F2DB029A02F47042A2F500535A425A
S2144012905A412A60EEE740230020236010B070BD1C
S2144012A0024B0146186800F051B800BF24004020A9
S2144012B038B50546002945D051F8043C0C1F002B94
S2144012C0B8BFE41800F03AF91F4A1368104633B91D
S2144012D0636014602846BDE8384000F030B9A34249
S2144012E00CD921686218934204BF1A685B68636031
S2144012F004BF521822600460ECE713465A680AB1ED
S214401300A242FAD919685818A0420BD12068014465
S214401310581882421960DDD1106852685A600144FC
S2144013201960D7E702D90C232B60D3E72068211831
S2144013308A4204BF11685268626004BF091821607F
S2144013405C60C7E738BD00BFB000402070B5CD1C1C
S21440135025F0030508350C2D38BF0C25002D064614
S21440136001DBA94203D90C233360002070BD00F096
S214401370E5F8234A1468214691B9224C23681BB9E4
S214401380304600F041F820602946304600F03CF8F0
S214401390431C26D10C233360304600F0D0F8E4E7F7
S2144013A00B685B1B1AD40B2B0FD90B60CD50CC1897
S2144013B0304600F0C4F804F10B00231D20F007006F
S2144013C0C31A1BD05A42E25070BD8C420DBF6368B0
S2144013D04B686360136018BF0C46E9E70C464968E3
S2144013E0CAE7C41C24F00304A04205D0211A3046A4
S2144013F000F00AF80130CDD02560D9E770BD00BFB7
S214401400B0004020B400402038B5064C00230546C6
S21440141008462360FFF78AF9431C02D1236803B1CC
S2144014202B6038BD0801402010B50C46B1F90E10AF
S21440143000F086F80028ABBF636DA3891B1823F421
S2144014408053ACBF6365A38110BD2DE9F0411F46B4
S2144014508B89DB0505460C46164605D50223002239
S214401460B1F90E1000F058F8A389B4F90E1023F421
S2144014708053A38132463B462846BDE8F04100F003
S21440148017B810B50C46B1F90E1000F045F8431CDD
S214401490A38915BF606523F4805343F48053A3812A
S2144014A018BFA38110BDB1F90E1000F013B80000AC
S2144014B038B5074C054608461146002222601A46B3
S2144014C0FFF70EFC431C02D1236803B12B6038BDE6
S2144014D00801402038B5064C0023054608462360E0
S2144014E0FFF736F9431C02D1236803B12B6038BDA1
S2144014F00801402038B5074C0023054608461146EB
S2144015002360FFF728F9431C02D1236803B12B6000
S21440151038BD00BF0801402038B5074C0546084690
S2144015201146002222601A46FFF71AF9431C02D1E0
S214401530236803B12B6038BD0801402070477047D0
S21440154038B5074C054608461146002222601A4622
S214401550FFF7B4FB431C02D1236803B12B6038BDB0
S214401560080140202E2E2F68616C2F7372632F68FF
S214401570616C5F696F2E63002E2E2F68616C2F732F
S21440158072632F68616C5F74696D65722E630000CC
S2144015902E2E2F68616C2F7372632F68616C5F7597
S2144015A0736172745F73796E632E63002E2E2F689C
S2144015B0616C2F7574696C732F7372632F757469C1
S2144015C06C735F6C6973742E630000002E2E2F6858
S2144015D0706C2F74632F68706C5F74632E630000AA
S2144015E00100000000080000510000002E2E2F6869
S2144015F0706C2F756172742F68706C5F7561727451
S2144016002E6300002800402000000000000000007C
S2144016100000000000000000000000000000000085
S2144016200000000000000000000000000000000075
S2144016300000000000000000000000000000000065
S2144016400000000000000000000000000000000055
S2144016500000000000000000000000000000000045
S2144016600000000000000000F8B500BFF8BC08BC51
S2144016709E4670478D014000F8B500BFF8BC08BCD8
S20C4016809E46704769014000D8
S21440168800C000401700000001C000000000000035
S214401698000000009F240000000000003E490000B3
S2144016A800000000280040200000000028164000E7
S2144016B848164000081640000000000000000000E1
S2144016C800000000000000000000000000000000CD
S2144016D800000000000000000000000000000000BD
S2144016E800000000000000000000000000000000AD
S2144016F8000000000000000000000000000000009D
S20C401708000000000000000094
S804400000BB
