:020000040040BA
:1000000058074020ED014000E9014000E9014000AF
:10001000E9014000E9014000E90140000000000062
:10002000000000000000000000000000E9014000A6
:10003000E901400000000000E9014000E901400042
:10004000E9014000E9014000E9014000E901400008
:10005000E9014000E9014000E9014000E9014000F8
:10006000E901400000000000E9014000E901400012
:10007000E9014000E9014000E9014000E9014000D8
:10008000E9014000E9014000E9014000E9014000C8
:10009000E9014000FD0D4000E9014000D11240009F
:1000A000E9014000E9014000E9014000E9014000A8
:1000B000E9014000E9014000E9014000E901400098
:1000C000E9014000E9014000E9014000E901400088
:1000D000E9014000E9014000E9014000E901400078
:1000E000E9014000E9014000E9014000E901400068
:1000F000E9014000E9014000E9014000E901400058
:10010000E9014000E9014000E9014000E901400047
:10011000E9014000E901400000000000000000008B
:10012000E9014000E9014000E9014000E901400027
:10013000E9014000E9014000E9014000E901400017
:10014000E9014000E9014000E9014000E901400007
:10015000E9014000E9014000E9014000E9014000F7
:10016000E9014000E901400010B5054C237833B99E
:10017000044B13B10448AFF300800123237010BD7A
:100180008800402000000000A02040000C4B43B13C
:100190000C480D4910B5AFF300800C48036823B933
:1001A00010BD0A48036833B97047094B002BF7D0DC
:1001B000BDE810401847064B002BF5D0184700BF8C
:1001C00000000000A02040008C004020A020400043
:1001D0000000000008B5024B9847024B984708BD45
:1001E000AD03400049174000FEE7000008B5104B82
:1001F000104A9A4209D00E4B0E4A03E0116819606A
:10020000043304320C498B42F8D30C4B02E0002239
:100210001A6004330A4A9342F9D30A4A0A4B23F07C
:100220007F039360094B9847094B9847FEE700BF4F
:1002300000004020A020400088004020880040208E
:100240005801402000ED00E0000040006917400028
:100250004D16400008B5084B9B6913F4000F03D1FD
:100260004FF40002044B1A61044B984702460449BC
:100270000448054B984708BD00060E40CD124000CB
:1002800000C0004038014020E1084000114B1A6FC7
:1002900042F480121A675A6F22F480125A674FF4A0
:1002A00080125A601A6F42F400121A675A6F22F4D1
:1002B00000125A674FF400125A601A6F42F480021B
:1002C0001A675A6F22F480025A674FF480025A600C
:1002D000704700BF00140E40044B9B6913F4001FCD
:1002E00003D14FF40012014B1A61704700060E4013
:1002F00010B5084B9847084B9847084C01462046D4
:10030000074B984707492046074B9847074B9847A4
:1003100010BD00BFD90240007D114000F000402018
:100320003906400000800040590640008D02400020
:100330000A4B1A6F22F020021A675A6F42F020020D
:100340005A6720225A601A6F22F040021A675A6FC9
:1003500042F040025A6740225A607047000E0E4039
:10036000044B9B6913F4807F03D14FF48072014BDF
:100370001A61704700060E4008B5064B9847064BB9
:100380009847024605490648064B9847064B98474A
:1003900008BD00BF6103400019154000000A0E406F
:1003A000E4004020D10A40003103400008B5074B6B
:1003B0009847074A536843F400435360054B9847F6
:1003C000054B9847054B984708BD00BFFD0B400003
:1003D00050180E40F10240005502400079034000E1
:1003E000EFF31083036072B6BFF35F8F7047BFF304
:1003F0005F8F036883F310887047000070B516465E
:1004000004460D46002818BF002914BF0120002013
:1004100034220449044B9847236832462946204633
:10042000984770BD301F4000450B400070B5164620
:1004300004460D46002818BF002914BF01200020E3
:100440003D220449044B98476368324629462046BA
:10045000984770BD301F4000450B4000F8B50F466F
:100460001646044640F227120949003018BF012001
:10047000084B98470025A5616761E6612562102356
:1004800023720121A4F12000034B98472846F8BDB0
:10049000441F4000450B4000FD0F400070B50D4665
:1004A0001646044640F205120C49003018BF0120E0
:1004B0000B4B9847A56100256561E6612562102315
:1004C0002372203C01212046064B984740F2FF1141
:1004D0002046054B9847284670BD00BF441F40008A
:1004E000450B400031104000B510400070B5044687
:1004F0000E46051F0021094B984700212046084B56
:10050000984700212046074B9847002384F828305D
:10051000236B13B131462846984770BDFD0F40004C
:10052000311040007110400038B5026CC36B9A4224
:1005300000D238BD051F04460021054B9847002313
:1005400084F82830E36A002BF3D028469847F0E778
:100550007110400010B504460379012B0CD9426B91
:10056000036C591C016432F813100C4B9847226C31
:10057000E36B9A4208D010BD426B036C591C0164B6
:10058000D15C064B9847F2E700212046044B984780
:1005900001212046034B9847EDE700BFB51040000E
:1005A000FD0F400071104000F8B50446071F856B31
:1005B000FDB10379012B15D9066C731C03641B4B29
:1005C000984725F81600236CE26B934221D2626BA8
:1005D000D2B12179012912D932F813102046144BD7
:1005E0009847F8BD066C731C0364104B9847A855D8
:1005F000E9E70E4B9847236C01332364E3E7D15CB2
:1006000020460B4B9847F8BDE1882046084B984799
:10061000F8BD00212046074B9847002384F8283076
:10062000E36A0BB138469847F8BD00BFE5104000BB
:10063000B51040003110400038B50D4604469E22EA
:100640000349003018BF0120024B9847256038BD90
:10065000441F4000450B400070B505460E4600287B
:1006600018BF002914BF01200020A5221149124BF8
:1006700098472C4644F8046F314620460F4B984764
:10068000002815DB0E4A002120460E4EB0470E4AC8
:1006900001212046B0470D4A02212046B0470C4AAE
:1006A00003212046B0470B4BAB620B4B6B62002023
:1006B00070BD00BF441F4000450B4000B90E400014
:1006C0005505400015114000A905400029054000CE
:1006D000ED0440009D0440005D04400010B5044658
:1006E000C1220549003018BF0120044B9847201D46
:1006F000034B984710BD00BF441F4000450B40000E
:100700002D0F400038B50D460446CF220949003070
:1007100018BF0120084B984794F82C3013F0100FA5
:1007200004D12946201D054B984738BD6FF00300C2
:1007300038BD00BF441F4000450B4000610F400022
:1007400038B50D460446E3220949003018BF0120A0
:10075000084B984794F82C3013F0100F04D1294619
:10076000201D054B984738BD6FF0030038BD00BF12
:10077000441F4000450B4000C50F400038B50D46F2
:100780000446ED220949003018BF0120084B984764
:1007900094F82C3013F0100F04D12946201D054B7E
:1007A000984738BD6FF0030038BD00BF441F4000BC
:1007B000450B4000990F400070B50C4616460546A3
:1007C00040F263120A49003018BF0120012C88BF93
:1007D0000020084B98470CB92E6370BD6E63321C25
:1007E00018BF01220321281D034B984770BD00BF8D
:1007F000441F4000450B40004511400038B50446F9
:100800000D46002818BF002914BF0120002040F227
:100810006F120349034B984724342C60002038BDE5
:10082000441F4000450B4000F8B5076817B13C462F
:1008300000260BE00E4B9847F8BDA5682B449B1A89
:1008400001338D68AB4209D22646246834B163680F
:100850009342F2D8A5689B1A2B44F2E7BC4203D01E
:100860003046044B9847F8BD014B9847F8BD00BF90
:10087000610B40008D0B4000F8B5446906690136F4
:100880000661037E13F0010F05D1037E13F0020F02
:1008900001D1054609E0037E43F002030376F8BD6B
:1008A0006F69E368204698473C469CB16368F31A39
:1008B000A26893420ED305F114073846064B9847B9
:1008C000237C012BECD16660324621463846034B2F
:1008D0009847E5E7F8BD00BF950B400029084000A8
:1008E00038B504460D46002818BF002914BF012062
:1008F00000203B220549064B984729462046054BD8
:10090000984700202061044B236038BD641F4000DD
:10091000450B4000E51140007908400010B5044641
:1009200053220949003018BF0120084B9847204640
:10093000074B984720B92046064B9847002010BD2A
:100940006FF0100010BD00BF641F4000450B400059
:10095000A9124000A112400070B582B004460D46B5
:10096000002818BF002914BF012000207A221D4949
:100970001D4B9847237E43F00103237604F11406B0
:1009800029463046194B984788B923696B6022691C
:1009900029463046164B9847237E03F0FE03237604
:1009A000237E13F0020F0ED1002002B070BD237E13
:1009B00003F0FE0323767F220A4900200A4B984762
:1009C0006FF01100F1E701A80A4B9847237E03F06E
:1009D000FD0323762046084B984701A8074B98470C
:1009E0000020E2E7641F4000450B40004B0B400035
:1009F00029084000E1034000B5124000EF03400029
:100A0000F8B5164605460F46002818BF002902D043
:100A10000ABB002000E00020F1221049104B98474B
:100A200005F1080420460F4B98470028F8D0002510
:100A3000795D20460C4B984720460A4B9847002882
:100A4000FAD00135B542F3D32046084B9847002829
:100A5000FAD02846F8BD0120DEE700BF7C1F400029
:100A6000450B4000A114400059144000C914400037
:100A70002DE9F041174605468846002818BF002991
:100A800002D0D2B9002000E000204FF486720C4959
:100A90000C4B9847002605F1080420460A4B98475E
:100AA0000028F8D02046094B984708F80600013680
:100AB000BE42F0D33046BDE8F0810120E5E700BF3B
:100AC0007C1F4000450B4000F11440007D144000A5
:100AD00038B504460D46002818BF002914BF012070
:100AE000002034220749084B9847294604F10800A2
:100AF000064B9847034618B9054A6260054A2260CA
:100B0000184638BD7C1F4000450B4000ED134000E7
:100B1000710A4000010A400010B5044653220649FC
:100B2000003018BF0120054B984704F10800044B22
:100B30009847002010BD00BF7C1F4000450B4000BF
:100B40002514400000B900BE704703681BB18B42FA
:100B500003D01B68FAE700207047012070470000AF
:100B600038B504460D46064B984780F001003922FF
:100B70000449C0B2044B984723682B60256038BDF8
:100B80004B0B4000981F4000450B400003680B6072
:100B90000160704703681BB11A680260184670470D
:100BA000002070470346064A126822B1044A1068C2
:100BB0000344136070470349014A1160F6E700BF20
:100BC000A4004020580740204FF0FF3070474FF4FA
:100BD00000534B60002070470020704743B2002B49
:100BE00009DB5B0900F01F00012202FA00F040332C
:100BF000014A42F82300704700E100E000B583B0ED
:100C000001A80E4B98470E4AD2F8883043F470037F
:100C1000C2F88830BFF34F8FBFF36F8F01A8094B25
:100C20009847094A136823F4706343F4C063136060
:100C3000064B984703B05DF804FB00BFE10340009A
:100C400000ED00E0EF034000000C0E40ED0C400012
:100C50000E490A6A22F002020D4B13430B620B4B42
:100C60009B6E13F0010FFAD0084B196A094A0A4328
:100C70001A62996A084A0A409A62084A9A62034BC1
:100C80009B6E13F0020FFAD0704700BF00060E40B3
:100C9000013E370000003701FFFF00F8013F182038
:100CA000114A136B23F0700313630F4B9B6E13F009
:100CB000080FFAD00C4A136B23F4407343F480738B
:100CC0001363094B9B6E13F0080FFAD0064A136B9F
:100CD00023F0030343F002031363034B9B6E13F0F3
:100CE000080FFAD0704700BF00060E4008B5024B4F
:100CF0009847024B984708BD510C4000A10C40009A
:100D0000034B984201D02A2070471520704700BF3E
:100D100000800040034B984200D07047024B19609E
:100D2000FBE700BF00800040A800402001230360D3
:100D30000020704710B50446084B98472046084BE2
:100D40009847002808DB420900F01F00012303FA3E
:100D500000F0044B43F82200002010BD2D0D400090
:100D6000010D400000E100E0036B23F47F43090222
:100D700089B20B4303630020704710B4036B23F068
:100D8000F0030C01E4B22343036329B1022313707F
:100D900000205DF8044B704701231370F8E7000052
:100DA000044B0344C3F30743052B01D000207047D5
:100DB000012070470080FFBF08B50268D169136940
:100DC0000B4013F0010F0AD113F0020F0AD113F4F4
:100DD000007F0AD140F20C52134209D108BDC3680A
:100DE000984708BD8368984708BD0369984708BDC0
:100DF00043696FF012019847F0E7000008B5024B15
:100E00001868024B984708BDA8004020B90D400063
:100E100070B506460C460846204B984700233BB366
:100E200000254FF4AC721E49002E18BF002C14BFD1
:100E3000012000201B4B984755B3236913F4803FD2
:100E400029D18023236034606A68174B13402360E4
:100E5000AB68164A1A40164B13436360EB68236372
:100E60002B8AF380EB6803F0F0033371002070BD30
:100E700003EB83018A000F498A5C904202D0013360
:100E8000DBB2CCE703EB8305AB000D461D44C8E79E
:100E90006FF00C0070BD6FF0100070BDA10D400030
:100EA000CC1F4000450B40007CFFFFFE6FFFF1FFB1
:100EB00010000E00B81F400038B504460D46174B11
:100EC0009847002828DB00232361E360A3602146C4
:100ED0002846134B98472846124B984700280CDBAE
:100EE000430900F01F0101228A4020330E4941F8D6
:100EF0002320BFF34F8FBFF36F8F00280BDB430915
:100F000000F01F00012202FA00F06033064A42F8A6
:100F10002300002038BD002038BD00BF110E400066
:100F2000150D4000010D400000E100E010B5044641
:100F300068B103684BB1012040F29D120549064B90
:100F400098472068054B984710BD0020F4E7002023
:100F5000F2E700BFCC1F4000450B4000350D4000BC
:100F600038B50D46044670B1036853B101204FF403
:100F7000ED720649064B984729462068054B98476D
:100F800038BD0020F3E70020F1E700BFCC1F400090
:100F9000450B4000690D400008B560B1036843B1DE
:100FA000012040F2E9120549054B98476FF01A00FD
:100FB00008BD0020F5E70020F3E700BFCC1F40008C
:100FC000450B400038B50D46044678B103685BB167
:100FD00001204FF4FC720649064B9847221D294612
:100FE0002068054B984738BD0020F2E70020F0E765
:100FF000CC1F4000450B40007B0D400038B50D462E
:1010000004684FF41E720849002818BF002C14BF52
:1010100001200020054B98471DB90223A361002041
:1010200038BD02236361FAE7CC1F4000450B400046
:10103000F8B50F4604680C4E40F287223146003066
:1010400018BF0120094DA8474FF422723146201CD9
:1010500018BF0120A8471FB90123A3610020F8BDD4
:1010600001236361FAE700BFCC1F4000450B40003D
:10107000F8B50F4604680D4E40F297223146003015
:1010800018BF01200A4DA8474FF426723146201C94
:1010900018BF0120A84727B94FF40073A3610020AF
:1010A000F8BD4FF400736361F9E700BFCC1F400047
:1010B000450B400038B50D46044668B103684BB196
:1010C000012040F2A5220549054B98472368DD60C1
:1010D000002038BD0020F4E70020F2E7CC1F4000DC
:1010E000450B400010B5044668B103684BB10120C0
:1010F00040F2AE220549064B98472368986880B2B3
:1011000010BD0020F4E70020F2E700BFCC1F400034
:10111000450B400070B50D461646044640F2B92214
:101120000649003018BF0120032D88BF0020044B62
:101130009847083444F82560002070BDCC1F40005B
:10114000450B400070B50C461546064640F2CB22D2
:101150000849003018BF0120074B9847032C00D0E6
:1011600070BD1DB9336808229A61F9E73368082217
:101170005A6170BDCC1F4000450B400000207047F5
:1011800000233BB10020704703EBC304A3000846D3
:1011900018440CE010B403EBC3018A0005498A58D7
:1011A0008242F1D00133DBB2002BF4D000205DF895
:1011B000044B704700004020034B984200D070471A
:1011C000024B1960FBE700BF00C00040AC004020AC
:1011D00008B5C3681B6A13F0100F00D108BD03687F
:1011E0009847FBE7F8B507460C460846274B984753
:1011F00005468668FC60912225490120254B9847C9
:1012000016F4004F01D046F4142666606B696361E2
:10121000AB69A361EB682363EB69E361102363624D
:101220002B69C4F8D830394620461B4B984795F9AE
:101230000430002B0DDB5A0903F01F03012101FAD2
:1012400003F32032154941F82230BFF34F8FBFF32B
:101250006F8F95F90430002B09DB5A0903F01F0347
:10126000012101FA03F360320C4941F8223095F96B
:101270000430002B08DB590903F01F03012202FA96
:1012800003F3064A42F821300020F8BD81114000E6
:10129000E41F4000450B4000B911400000E100E0B0
:1012A000C36805221A607047C368186AC0F300401B
:1012B0007047000008B5C068024B98470079024BA0
:1012C000984708BD81114000DD0B400000207047A9
:1012D00008B5024B1868024B984708BDAC00402087
:1012E000D111400010B5044640F2192212490030D5
:1012F00018BF0120114B9847114B9C4213D003F5A6
:1013000000739C4211D003F580539C420FD003F52B
:1013100000739C420DD003F500739C4201D0FF2066
:1013200010BD042010BD002010BD012010BD022002
:1013300010BD032010BD00BF04204000450B40003D
:1013400000080E4010B504464FF427720E490030D5
:1013500018BF01200D4B984720460D4B984700239E
:1013600043B140F2A62208490020084B98470023C9
:10137000184610BD03EB43018A0006498A5C90427F
:10138000F6D00133DBB2EBE704204000450B400010
:10139000E5124000F81F400010B5044640F2B322A9
:1013A0000D49003018BF01200C4B984720460C4BCC
:1013B00098470C4BC4F8E430AC2323604FF480739F
:1013C000236000EB40008200074B13445B686360BE
:1013D00051232362002010BD04204000450B400033
:1013E0004513400000524155F81F4000F8B50C4627
:1013F000094E0746A9223146003018BF0120074D8B
:10140000A847AA223146201C18BF0120A8473C60EB
:101410002046034B9847F8BD04204000450B400090
:101420009913400070B50A4E0446F222314600304E
:1014300018BF0120074DA847246840F2D722314643
:10144000201C18BF0120A8475023236070BD00BF97
:1014500004204000450B400038B50C46054640F2DC
:1014600095120449003018BF0120034B98472B68A0
:10147000DC6138BD04204000450B400010B5044637
:1014800040F2A7120449003018BF0120034B9847CF
:1014900023689869C0B210BD04204000450B40008D
:1014A00010B504464FF4D8720549003018BF01202A
:1014B000044B984723685869C0F3400010BD00BF33
:1014C00004204000450B400010B5044640F2B9121C
:1014D0000549003018BF0120044B9847236858691C
:1014E000C0F3402010BD00BF04204000450B400069
:1014F00010B5044640F2CB120549003018BF012058
:10150000044B98472368586900F0010010BD00BFE4
:1015100004204000450B4000002070470E4B4FF068
:1015200000721A634FF480521A630C4A936B03F0F3
:10153000010383F0010111635363094B9B68DBB224
:101540002A2B00D07047936B03F00203D94301F0BC
:10155000020111635363F5E700140E4000120E40C0
:10156000008000407047000030B583B0154C01A9E1
:101570002046154B984700212046144B98470021E0
:101580002046134B984713492046134B984702AD0A
:101590002A2305F8053D114A00212046104B9847A3
:1015A0002046104B9847104B4FF000725A634FF48F
:1015B00080525A630122294601980C4B984703B088
:1015C00030BD00BFF0004020FD0740007D07400017
:1015D00041074000C8FC0800050740001D154000F9
:1015E000B9074000DD06400000140E40FD03400036
:1015F00008B5014B984708BD6915400070B50D4C02
:101600006423A3600C4BE360012323744FF4FA625C
:10161000E2610A4A226284F82430094D21462846B4
:10162000084EB04704F114012846B0472846064B3F
:10163000984770BDB0004020F1154000651540008E
:1016400038014020590940001D09400008B50A4BE7
:1016500098470A4B98470A4B0120186102211961EB
:10166000084A4FF0007515614FF4805414611563FA
:10167000146318631963FEE7D5014000FD154000AF
:1016800000120E4000140E4058B908B50B46114622
:101690001846054B9847002800DB08BD4FF0FF3087
:1016A00008BD4FF0FF307047011740000138022895
:1016B0000BD808B50B4611461846054B984700282D
:1016C00000DB08BD4FF0FF3008BD4FF0FF30704722
:1016D0002517400070B50646064D2B680021986816
:1016E000054CA0472B6800215868A047034B1E609B
:1016F00070BD00BF24004020C1174000D80040202A
:1017000008B5064B1B6833B10A46014692B218462B
:10171000034B984708BD002008BD00BFD8004020FB
:101720002D04400008B5064B1B6833B10A4601463C
:1017300092B21846034B984708BD002008BD00BF71
:10174000D8004020FD03400010B5044C2046044B57
:1017500098472046034B984710BD00BFE400402047
:10176000190B4000D516400070B50D4E0D4CA41B52
:10177000A4100025A54209D10B4E0C4C00F080FCB2
:10178000A41BA4100025A54205D170BD56F8253034
:1017900098470135EEE756F8253098470135F2E7CE
:1017A0008C2040008C2040008C2040009020400085
:1017B00002440346934200D1704703F8011BF9E746
:1017C00000294FF480630CBF0222002200F000B811
:1017D0002DE9F7431D46514B1E6804460F469046BF
:1017E00026B1B36913B9304600F092F94C4B9C42D4
:1017F00052D17468B8F1020F06D0B8F1010F00F2AF
:101800008980002DC0F286802146304600F016F90E
:10181000616B41B104F14403994202D0304600F0BB
:101820002DFA002363630023A3616360A3891B0671
:1018300003D52169304600F021FAA38923F44A63D5
:1018400023F00303B8F1020FA3815DD001AB6A4618
:101850002146304600F0E6F9A3891843A0812DBB4C
:10186000009D284600F002FA074600284ED1DDF818
:101870000090A9453CD14FF0FF30A38943F002030B
:10188000A3810023A36004F14703236023610123A4
:10189000636103B0BDE8F083224B9C4201D1B46880
:1018A000A8E7214B9C4208BFF468A3E7002FD8D0DB
:1018B000B36913B9304600F02BF9B8F1010F08BF36
:1018C000A389276004BF43F00103A381A389276193
:1018D00013F0080065611BD013F0010018BF6D42C2
:1018E0004FF000031DBFA360A5611846A560D0E7B7
:1018F000484600F0BBF907460028BCD0A38943F056
:101900008003A3814D46D3E70020B6E7A946F5E75B
:10191000A060BEE74FF0FF30BBE700BF24004020CF
:101920004020400060204000202040008A892DE9AE
:10193000F041054610070C465AD44B68002B05DCD5
:101940000B6C002B02DC0020BDE8F081E66A002E63
:10195000F9D0002312F480522F682B6033D0606DD1
:10196000A3895A0705D56368C01A636B0BB1236C52
:10197000C01A00230246E66A216A2846B047431C83
:10198000A38906D129681D294BD82B4ACA40D607FE
:1019900047D500226260D9042269226004D5421C26
:1019A00001D12B6803B96065616B2F600029CAD033
:1019B00004F14403994202D0284600F05FF9002068
:1019C0006063BDE8F081216A01232846B047411CCD
:1019D000C6D12B68002BC3D01D2B01D0162B01D1F3
:1019E0002F60B0E7A38943F04003A381BDE8F081F5
:1019F0000F69002FA7D093070E6808BF4B690F60CF
:101A000018BF0023A6EB07088B60B8F1000F9ADD22
:101A100043463A46216AA66A2846B047002807DCB2
:101A2000A38943F04003A3814FF0FF30BDE8F0816C
:101A30000744A8EB0008E8E70100402038B50B692F
:101A400005460C46DBB118B183690BB900F060F8AC
:101A50000C4B9C4209D16C68B4F90C307BB1214627
:101A60002846BDE83840FFF761BF074B9C4201D1D3
:101A7000AC68F1E7054B9C4208BFEC68ECE700203E
:101A800038BD00BF402040006020400020204000C2
:101A9000014900F0A9B800BF3D1A4000002310B56D
:101AA000044603604360836081814366C2810361B1
:101AB00043618361194608225C30FFF779FE054BCC
:101AC0006362054BA362054BE362054B246223630B
:101AD00010BD00BFF51D4000171E40004F1E400006
:101AE000731E400070B54A1E682555430E4605F129
:101AF000740100F011F9044640B1002180E8420071
:101B00000C30A06005F16802FFF752FE204670BD60
:101B1000836910B5044633BB8364C3640365124B09
:101B2000124A1B688262984204BF0123836100F05D
:101B30001FF86060204600F01BF8A060204600F00F
:101B400017F80022E06004216068FFF7A7FF012278
:101B50000921A068FFF7A2FF02221221E068FFF727
:101B60009DFF0123A36110BD1C204000911A40007D
:101B7000F8B51C4B1E68B369074613B93046FFF72A
:101B8000C7FF4836B4687368013B03D5336833B187
:101B90003668F7E7B4F90C506DB16834F4E7042106
:101BA0003846FFF79FFF30600028F1D10C233B60DF
:101BB00004462046F8BD4FF6FF73E3810123A3815D
:101BC00065662560A560656025616561A56108227F
:101BD000294604F15C00FFF7EBFD6563A563A5648E
:101BE000E564E6E71C2040002DE9F843804689467D
:101BF00000F14804002614B93046BDE8F883A56812
:101C00006768013F01D52468F5E7AB89012B07D947
:101C1000B5F90E30013303D029464046C847064384
:101C20006835EEE770B50E46B1F90E10002990B098
:101C300014461D4607DA00232B60B3891A0610D418
:101C40004FF480630EE001AA00F03AF90028F2DBBD
:101C5000029A02F47042A2F500535A425A412A6095
:101C6000EEE740230020236010B070BD024B014618
:101C7000186800F051B800BF2400402038B5054670
:101C8000002945D051F8043C0C1F002BB8BFE418C4
:101C900000F03AF91F4A1368104633B963601460C4
:101CA0002846BDE8384000F030B9A3420CD921687D
:101CB0006218934204BF1A685B68636004BF5218DD
:101CC00022600460ECE713465A680AB1A242FAD9CE
:101CD00019685818A0420BD1206801445818824254
:101CE0001960DDD1106852685A6001441960D7E765
:101CF00002D90C232B60D3E7206821188A4204BF45
:101D000011685268626004BF091821605C60C7E70F
:101D100038BD00BFDC00402070B5CD1C25F00305A8
:101D200008350C2D38BF0C25002D064601DBA942D5
:101D300003D90C233360002070BD00F0E5F8234A7E
:101D40001468214691B9224C23681BB9304600F033
:101D500041F820602946304600F03CF8431C26D16B
:101D60000C233360304600F0D0F8E4E70B685B1BCF
:101D70001AD40B2B0FD90B60CD50CC18304600F085
:101D8000C4F804F10B00231D20F00700C31A1BD078
:101D90005A42E25070BD8C420DBF63684B6863606D
:101DA000136018BF0C46E9E70C464968CAE7C41C33
:101DB00024F00304A04205D0211A304600F00AF8AE
:101DC0000130CDD02560D9E770BD00BFDC004020D8
:101DD000E000402038B5064C002305460846236045
:101DE000FEF7E0FE431C02D1236803B12B6038BD2F
:101DF0005401402010B50C46B1F90E1000F086F8E1
:101E00000028ABBF636DA3891B1823F48053ACBFBC
:101E10006365A38110BD2DE9F0411F468B89DB0569
:101E200005460C46164605D502230022B1F90E10D0
:101E300000F058F8A389B4F90E1023F48053A3815D
:101E400032463B462846BDE8F04100F017B810B5D1
:101E50000C46B1F90E1000F045F8431CA38915BFDC
:101E6000606523F4805343F48053A38118BFA3819A
:101E700010BDB1F90E1000F013B8000038B5074CD2
:101E8000054608461146002222601A46FFF70EFC5E
:101E9000431C02D1236803B12B6038BD540140209C
:101EA00038B5064C0023054608462360FEF78CFE35
:101EB000431C02D1236803B12B6038BD540140207C
:101EC00038B5074C00230546084611462360FEF747
:101ED0007EFE431C02D1236803B12B6038BD00BFD6
:101EE0005401402038B5074C0546084611460022EB
:101EF00022601A46FEF770FE431C02D1236803B12C
:101F00002B6038BD540140207047704738B5074CEE
:101F1000054608461146002222601A46FFF7B4FB28
:101F2000431C02D1236803B12B6038BD540140200B
:101F30002E2E2F68616C2F7372632F68616C5F693E
:101F40006F2E63002E2E2F68616C2F7372632F68C3
:101F5000616C5F7370695F6D5F6173796E632E632F
:101F6000000000002E2E2F68616C2F7372632F68A3
:101F7000616C5F74696D65722E6300002E2E2F6890
:101F8000616C2F7372632F68616C5F75736172741B
:101F90005F73796E632E63002E2E2F68616C2F7530
:101FA00074696C732F7372632F7574696C735F6CD3
:101FB0006973742E630000000000000000000080C0
:101FC0000100000002169604FFFF00002E2E2F686D
:101FD000706C2F7370692F68706C5F7370692E63FB
:101FE000000000002E2E2F68706C2F74632F687015
:101FF0006C5F74632E6300000100000000080000A5
:10200000510000002E2E2F68706C2F756172742F96
:1020100068706C5F756172742E6300002800402048
:1020200000000000000000000000000000000000B0
:1020300000000000000000000000000000000000A0
:102040000000000000000000000000000000000090
:102050000000000000000000000000000000000080
:102060000000000000000000000000000000000070
:102070000000000000000000000000000000000060
:10208000F8B500BFF8BC08BC9E4670478D01400003
:10209000F8B500BFF8BC08BC9E4670476901400017
:1020A00000C000401700000001C000000000000058
:1020B000000000009F240000000000003E490000D6
:1020C00000000000280040200000000040204000E8
:1020D00060204000202040000000000000000000C0
:1020E00000000000000000000000000000000000F0
:1020F00000000000000000000000000000000000E0
:1021000000000000000000000000000000000000CF
:1021100000000000000000000000000000000000BF
:082120000000000000000000B7
:0400000500400000B7
:00000001FF
