:020000040040BA
:1000000038094020ED014000E9014000E9014000CD
:10001000E9014000E9014000E90140000000000062
:10002000000000000000000000000000E9014000A6
:10003000E901400000000000E9014000E901400042
:10004000E9014000E9014000E9014000E901400008
:10005000E9014000E9014000E9014000E9014000F8
:10006000E901400000000000E9014000E901400012
:10007000E9014000E9014000E9014000E9014000D8
:10008000E9014000E9014000E9014000E9014000C8
:10009000E9014000E9014000E90140003D10400055
:1000A000E9014000E9014000E9014000E9014000A8
:1000B000E9014000E9014000E9014000E901400098
:1000C000E9014000E9014000E9014000190E40004B
:1000D000E90140002D0E4000E9014000E901400027
:1000E000E9014000E9014000E9014000E901400068
:1000F000E9014000E9014000E9014000E901400058
:10010000E9014000E9014000E9014000E901400047
:10011000E9014000E901400000000000000000008B
:10012000E9014000E9014000E9014000E901400027
:10013000E9014000E9014000E9014000E901400017
:10014000E9014000E9014000E9014000E901400007
:10015000E9014000E9014000E9014000E9014000F7
:10016000E9014000E901400010B5054C237833B99E
:10017000044B13B10448AFF300800123237010BD7A
:10018000B000402000000000502940000C4B43B15B
:100190000C480D4910B5AFF300800C48036823B933
:1001A00010BD0A48036833B97047094B002BF7D0DC
:1001B000BDE810401847064B002BF5D0184700BF8C
:1001C0000000000050294000B400402050294000A9
:1001D0000000000008B5024B9847024B984708BD45
:1001E000F503400019174000FEE7000008B5104B6A
:1001F000104A9A4209D00E4B0E4A03E0116819606A
:10020000043304320C498B42F8D30C4B02E0002239
:100210001A6004330A4A9342F9D30A4A0A4B23F07C
:100220007F039360094B9847094B9847FEE700BF4F
:100230000000402050294000B0004020B000402085
:100240003803402000ED00E0000040003917400076
:100250008912400008B5084B9B6913F4000F03D1C5
:100260004FF40002044B1A61044B984702460449BC
:100270000448054B984708BD00060E403910400061
:1002800000C0004098014020F50640000A4B1A6F5C
:1002900022F020021A675A6F42F020025A67202289
:1002A0005A601A6F22F040021A675A6F42F04002F9
:1002B0005A6740225A607047000E0E40044B9B69FB
:1002C00013F4807F03D14FF48072014B1A617047A1
:1002D00000060E4008B5064B9847064B9847024665
:1002E00005490648064B9847064B984708BD00BF8E
:1002F000BD02400085124000000A0E40640140200B
:10030000010840008D024000054BD3F8083113F07E
:10031000080F03D10822024BC3F80021704700BF29
:1003200000060E400A4B1A6F22F008021A675A6F35
:1003300022F008025A6708225A601A6F22F004025B
:100340001A675A6F22F004025A6704225A607047F3
:1003500000100E4008B5044B9847044B98470449D9
:100360000448054B984708BD090340002503400099
:10037000000003403C01402095044000054BD3F8A9
:10038000083113F0200F03D12022024BC3F80021C3
:10039000704700BF00060E400B4B1A6F22F48052CC
:1003A0001A675A6F42F480525A674FF480525A606B
:1003B0001A6F22F480421A675A6F42F480425A67D9
:1003C0004FF480425A60704700120E4008B5044B4B
:1003D0009847044B984704490448054B984708BD83
:1003E0007D0340009903400000400340700140201D
:1003F0009504400008B5114B9847114B9B6913F4C5
:10040000006F03D14FF400620D4B1A610D4A53681F
:1004100043F4004353600C4B01225A631A611A6083
:1004200002225A631A611A60084B9847084B984792
:10043000084B9847084B984708BD00BF2909400062
:1004400000060E4050180E4000100E4055024000AD
:10045000D502400055034000CD034000EFF3108368
:10046000036072B6BFF35F8F7047BFF35F8F03689F
:1004700083F31088704708B5C36903B1984708BD76
:1004800008B5036A03B1984708BD08B5436A03B1CC
:10049000984708BD38B504460D46002818BF002906
:1004A00014BF0120002041220849094B98472946E2
:1004B0002046084B9847034628B9074A6260074A16
:1004C000A260074AE260184638BD00BFB827400066
:1004D00075084000F10940007704400081044000A5
:1004E0008B04400010B504465C220549003018BF5B
:1004F0000120044B98472046034B984710BD00BF8E
:10050000B827400075084000C50B400038B50446C8
:100510000D46002818BF002914BF012000206E22BC
:100520000349044B984729462046034B984738BD5A
:10053000B827400075084000D50B400038B5044688
:100540000D46002818BF002914BF01200020772283
:100550000349044B984729462046034B984738BD2A
:10056000B827400075084000A10C400070B50C464B
:100570001646054681220E49003018BF01200D4B5A
:100580009847012C0FD024B1022C0ED06FF00C0034
:1005900070BD2E62321C18BF012221462846064B30
:1005A0009847002070BDEE61F4E76E62F2E700BF8D
:1005B000B827400075084000D50D400010B5044B29
:1005C0001C68044B984701462046034B984710BDD2
:1005D000CC004020110940002309400070B51646A8
:1005E00004460D46002818BF002914BF0120002032
:1005F00034220449044B9847236832462946204652
:10060000984770BDD42740007508400070B5164665
:1006100004460D46002818BF002914BF0120002001
:100620003D220449044B98476368324629462046D8
:10063000984770BDD427400075084000F8B507689A
:1006400017B13C4600260BE00E4B9847F8BDA56855
:100650002B449B1A01338D68AB4209D2264624688D
:1006600034B163689342F2D8A5689B1A2B44F2E731
:10067000BC4203D03046044B9847F8BD014B984725
:10068000F8BD00BF91084000BD084000F8B54469BE
:10069000066901360661037E13F0010F05D1037E62
:1006A00013F0020F01D1054609E0037E43F0020377
:1006B0000376F8BD6F69E368204698473C469CB1D5
:1006C0006368F31AA26893420ED305F11407384603
:1006D000064B9847237C012BECD1666032462146BD
:1006E0003846034B9847E5E7F8BD00BFC508400012
:1006F0003D06400038B504460D46002818BF0029C5
:1007000014BF012000203B220549064B984729468B
:100710002046054B984700202061044B236038BDDC
:10072000E8274000750840007D0F40008D0640001E
:10073000F8B5164605460F46002818BF002902D016
:100740000ABB002000E00020F1221049104B98471E
:1007500005F1080420460F4B98470028F8D00025E3
:10076000795D20460C4B984720460A4B9847002855
:10077000FAD00135B542F3D32046084B98470028FC
:10078000FAD02846F8BD0120DEE700BF002840006F
:10079000750840000D124000C511400035124000A0
:1007A0002DE9F041174605468846002818BF002964
:1007B00002D0D2B9002000E000204FF486720C492C
:1007C0000C4B9847002605F1080420460A4B984731
:1007D0000028F8D02046094B984708F80600013653
:1007E000BE42F0D33046BDE8F0810120E5E700BF0E
:1007F00000284000750840005D124000E9114000EB
:1008000038B504460D46002818BF002914BF012042
:10081000002034220749084B9847294604F1080074
:10082000064B9847034618B9054A6260054A22609C
:10083000184638BD00284000750840005911400096
:10084000A10740003107400010B504465322064975
:10085000003018BF0120054B984704F10800044BF5
:100860009847002010BD00BF0028400075084000D8
:100870009111400000B900BE704703681BB18B4264
:1008800003D01B68FAE70020704701207047000082
:1008900038B504460D46064B984780F001003922D2
:1008A0000449C0B2044B984723682B60256038BDCB
:1008B0007B0840001C2840007508400003680B605E
:1008C0000160704703681BB11A68026018467047E0
:1008D000002070470346064A126822B1044A106895
:1008E0000344136070470349014A1160F6E700BFF3
:1008F000D0004020380940204FF0FF3070474FF4BF
:1009000000534B6000207047012070470020704763
:100910004FF4967303FB00F04FF47A7303FB00F07F
:1009200070470139FDD8704700B583B001A80E4B60
:1009300098470E4AD2F8883043F47003C2F88830E2
:10094000BFF34F8FBFF36F8F01A8094B9847094A38
:10095000136823F4706343F4C0631360064B984735
:1009600003B05DF804FB00BF5D04400000ED00E053
:100970006B044000000C0E40FD0E400038B50546EB
:1009800003681C6D14F0010F1AD114F4007F1AD102
:1009900014F0007F1BD114F0807F1DD114F4000FE0
:1009A00008D0EB682A68526C12F0200F19D002218F
:1009B0002846984714F0080F15D12B681C6538BDE0
:1009C00083689847E1E76B6828469847E0E7EB685B
:1009D000032128469847DEE7EB6800212846984720
:1009E000DCE70121E4E7EB68042128469847E4E7C7
:1009F00030B401608B6943F001038B6103689A692D
:100A000012F0010FFAD09A6942F002029A61624B29
:100A1000994214D0614B994266D00268936923F0E1
:100A2000020393610268936923F0010393610368F1
:100A30009B6913F0010FFAD1002030BC7047584B6E
:100A400083610268936943F4004393610368554AE4
:100A5000DA61036840F63312DA60036840F60B325D
:100A60009A640268504B9BB243F4C023C2F8A03092
:100A700003680024C3F8BC400368C3F8C840026898
:100A80004A4B9BB243F0C063C2F8C0300568484A85
:100A900093B243F40033C5F8F03003682B25C3F854
:100AA0008050056802F110039BB243F40033C5F88F
:100AB0008430056802F118039BB243F40033C5F893
:100AC00088300368C3F8904090623A4B0822C3F81C
:100AD0008420BFF34F8FBFF36F8FC3F884215A6018
:100AE00003680122DA6595E7334B836102689369F5
:100AF00043F40043936103682A4ADA61036840F6CD
:100B00003312DA60036840F60B329A6402682B4BAA
:100B10009BB243F4C023C2F8A03003680022C3F89C
:100B2000BC200368C3F8C8200168254B9BB243F082
:100B3000C063C1F8C03004681D4901F12C039BB2A9
:100B400043F40033C4F8F03003682B24C3F880402A
:100B5000046801F13C039BB243F40033C4F88430D1
:100B6000046801F144039BB243F40033C4F88830B5
:100B70000368C3F8902048650E4B2022C3F88420F8
:100B8000BFF34F8FBFF36F8FC3F884215A600368A0
:100B90000122DA6541E700BF000003400040034046
:100BA00000004020070A0206B4014020D402402081
:100BB000D400402000E100E01400402074024020F6
:100BC000140240200268936923F00103936100201E
:100BD000704700000368D3F8A42012F07F0F4DD0B7
:100BE000F0B585B0D3F8A460C6F30526264A934233
:100BF00032D00024254A934232D0002C41D02368C1
:100C000013F0804F30D100234B732368C3F38A4322
:100C10000B60236813F0005F2DD10D4607461C4B77
:100C20000FCB0DF1100E0EE90F006368C3F3034301
:100C3000734413F8102C2A7304F10801A868154BAB
:100C400098473A68D2F8A83023F03F031E43C2F811
:100C5000A860002005B0F0BD0F4C04EB0614C9E7F6
:100C60000E4C04EB0614C8E701234B732368C3F34F
:100C70001C030B60CDE701230B71CEE76FF0090079
:100C800070476FF01B00E5E70000034000400340A1
:100C90003C28400081174000B401402074024020ED
:100CA00038B50268D2F8C43013F4001F40F08280D7
:100CB000D2F8C450C5F30445414B9A4234D00023C6
:100CC000404CA24234D0002B77D04A7B012A33D04B
:100CD0000A6892041A600A7B082A34D85C6862F3B6
:100CE00013445C60044602689269C2F300225868AB
:100CF00062F35550586022689269C2F340225868E6
:100D000062F3145058600A7B896803F108002E4B87
:100D100098472168D1F8C420C2F3044201239340CC
:100D2000C1F8D030002038BD284B03EB0513C7E7CE
:100D3000274B03EB0513C6E70A681A601A6842F0EE
:100D400080421A60C7E70C2A05D85A68092464F360
:100D500013425A60C6E7102A05D85A680A2464F379
:100D600013425A60BEE7142A05D85A680B2464F36C
:100D700013425A60B6E7182A05D85A680C2464F35F
:100D800013425A60AEE7202A05D85A680D2464F34E
:100D900013425A60A6E7302A05D85A680E2464F335
:100DA00013425A609EE7402A9CD85A6842F4702247
:100DB0005A6097E76FF01B0038BD6FF01B0038BD1D
:100DC000000003400040034081174000D40240204F
:100DD0001402402021B1012909D0022914D0704702
:100DE00001684B6D23F001031A434A65704701689F
:100DF0004B6D23F4007343EA42224A6503684FF0C7
:100E0000FF32C3F8E02070470268536D23F4FF738C
:100E10009B059B0D5365E2E708B5024B986A024BB0
:100E2000984708BDD40040207D09400008B5024B1A
:100E3000586D024B984708BDD40040207D09400002
:100E40000E490A6A22F002020D4B13430B620B4B50
:100E50009B6E13F0010FFAD0084B196A094A0A4336
:100E60001A62996A084A0A409A62084A9A62034BCF
:100E70009B6E13F0020FFAD0704700BF00060E40C1
:100E8000013E370000003701FFFF00F8013F182046
:100E9000114A136B23F0700313630F4B9B6E13F017
:100EA000080FFAD00C4A136B23F4407343F4807399
:100EB0001363094B9B6E13F0080FFAD0064A136BAD
:100EC00023F0030343F002031363034B9B6E13F001
:100ED000080FFAD0704700BF00060E400122064BF3
:100EE0005A65054B9B6E13F4005FFAD04FF4005225
:100EF000014B1A60704700BF00060E4008B5034B57
:100F00009847034B9847034B984708BD410E400054
:100F1000910E4000DD0E400000233BB100207047E1
:100F200003EBC304A300084618440CE010B403EB21
:100F3000C3018A0005498A588242F1D00133DBB2ED
:100F4000002BF4D000205DF8044B704728004020AF
:100F5000034B984200D07047024B1960FBE700BF7B
:100F600000C000402C01402008B5C3681B6A13F084
:100F7000100F00D108BD03689847FBE7F8B5074696
:100F80000C460846274B984705468668FC60912228
:100F900025490120254B984716F4004F01D046F40F
:100FA000142666606B696361AB69A361EB682363B8
:100FB000EB69E361102363622B69C4F8D8303946CA
:100FC00020461B4B984795F90430002B0DDB5A093E
:100FD00003F01F03012101FA03F32032154941F800
:100FE0002230BFF34F8FBFF36F8F95F90430002B82
:100FF00009DB5A0903F01F03012101FA03F36032F0
:101000000C4941F8223095F90430002B08DB5909CE
:1010100003F01F03012202FA03F3064A42F82130CB
:101020000020F8BD190F40004C2840007508400012
:10103000510F400000E100E00020704708B5024B6E
:101040001868024B984708BD2C014020690F4000EA
:1010500010B5044640F219221249003018BF012091
:10106000114B9847114B9C4213D003F500739C42DF
:1010700011D003F580539C420FD003F500739C42BE
:101080000DD003F500739C4201D0FF2010BD042059
:1010900010BD002010BD012010BD022010BD032096
:1010A00010BD00BF6C2840007508400000080E40CD
:1010B00010B504464FF427720E49003018BF0120C6
:1010C0000D4B984720460D4B9847002343B140F203
:1010D000A62208490020084B98470023184610BD57
:1010E00003EB43018A0006498A5C9042F6D0013343
:1010F000DBB2EBE76C28400075084000511040005F
:101100006028400010B5044640F2B3220D4900307B
:1011100018BF01200C4B984720460C4B98470C4BAE
:10112000C4F8E430AC2323604FF48073236000EBF9
:1011300040008200074B13445B68636051232362C5
:10114000002010BD6C28400075084000B110400020
:101150000052415560284000F8B50C46094E07463C
:10116000A9223146003018BF0120074DA847AA2206
:101170003146201C18BF0120A8473C602046034B85
:101180009847F8BD6C2840007508400005114000E4
:1011900070B50A4E0446F2223146003018BF0120D5
:1011A000074DA847246840F2D7223146201C18BFBB
:1011B0000120A8475023236070BD00BF6C28400069
:1011C0007508400038B50C46054640F295120449B2
:1011D000003018BF0120034B98472B68DC6138BDF5
:1011E0006C2840007508400010B5044640F2A71274
:1011F0000449003018BF0120034B984723689869C1
:10120000C0B210BD6C2840007508400010B50446FF
:101210004FF4D8720549003018BF0120044B98479D
:1012200023685869C0F3400010BD00BF6C2840001F
:101230007508400010B5044640F2B9120549003067
:1012400018BF0120044B984723685869C0F3402019
:1012500010BD00BF6C2840007508400010B5044662
:1012600040F2CB120549003018BF0120044B9847CB
:101270002368586900F0010010BD00BF6C284000D1
:10128000750840000020704710B584B0284B98477F
:10129000284B9847284B01221A6102221A61042226
:1012A0001A6108221A6110221A6120221A61402252
:1012B0001A6180221A614FF480721A614FF4007231
:1012C0001A614FF480621A614FF400621A610022C1
:1012D0000DE002F01F034033C3F3471003F01F0378
:1012E00001219940154B03EB4023196301320B2A6E
:1012F000EFDD012211460020114B984712E0082330
:101300008DF8033001940DF10303029301238DF84E
:101310000C3001A80B4B984732200B4B98470134F7
:101320000C2CECDD4FF47A70074B98470124F7E75B
:10133000D50140000D15400000120E40000E0E4079
:1013400001164000B5154000BD05400084B004AB57
:1013500003E907009DF80430013B0B2B0FD8DFE8B1
:1013600003F006101A242E38424C56606A743C4A28
:10137000936B03F0010383F001011163536304B025
:101380007047374A936B03F00203D94301F002011F
:1013900011635363F3E7324A936B03F00403D943B9
:1013A00001F0040111635363E9E72D4A936B03F0E5
:1013B0000803D94301F0080111635363DFE7284AAA
:1013C000936B03F01003D94301F0100111635363D1
:1013D000D5E7234A936B03F02003D94301F02001A2
:1013E00011635363CBE71E4A936B03F04003D94369
:1013F00001F0400111635363C1E7194A936B03F095
:101400008003D94301F0800111635363B7E7144AA5
:10141000936B03F48073D94301F4807111635363B8
:10142000ADE70F4A936B03F40073D94301F40071E5
:1014300011635363A3E70A4A936B03F48063D943B0
:1014400001F480611163536399E7054A936B03F4D8
:101450000063D94301F40061116353638FE700BF58
:1014600000120E4000B585B004AB03E90700029BF3
:1014700019780748074B9847074A936B03F40063B2
:10148000D94301F400611163536305B05DF804FBB7
:1014900084284000A917400000120E4000B599B002
:1014A00004AB169314A9094B9847169B02939DF819
:1014B0005C308DF80C3018AB149A43F85C2D93E82F
:1014C0000700034B984719B05DF804FB0D05400079
:1014D0004D13400000B599B004AB169314A9094B05
:1014E0009847169B02939DF85C308DF80C3018AB32
:1014F000149A43F85C2D93E80700034B984719B002
:101500005DF804FB0D05400065144000F8B5104D72
:1015100010492846104EB047104C11492046B0479C
:10152000104A00212846104EB047104A002120469C
:10153000B0470F4F3A4602212846B0473A460221AB
:101540002046B04728460B4DA8472046A847F8BD7F
:101550003C01402000000340950440007001402001
:10156000004003409D1440006D054000D51440002C
:1015700079154000E504400008B5014B984708BDC7
:101580000D15400002684168037A002A18BF00293F
:1015900009D0013BDBB23F2B07D840F2FE739A42E1
:1015A00005D90020704700207047002070470120B7
:1015B0007047000010B584B004460B4B984708B93B
:1015C00004B010BD2368009300238DF804306268D6
:1015D0000292227A8DF80C208DF80D30694603486E
:1015E000034B9847ECE700BF851540007001402091
:1015F0003D0540003F2801D9002070470120704779
:1016000070B504460E461546114B9847F0B1114B84
:101610009B69DB68002143F8241053F8242066F30B
:101620001A4243F8242053F8242065F30A0243F8B1
:10163000242053F8242061F39F7243F8242053F8A8
:101640002420012161F3DD6243F8242070BD00BF36
:10165000F51540003C01402058B908B50B4611462D
:101660001846054B9847002800DB08BD4FF0FF30B7
:1016700008BD4FF0FF307047D116400001380228F6
:101680000BD808B50B4611461846054B984700285D
:1016900000DB08BD4FF0FF3008BD4FF0FF30704752
:1016A000F516400070B50646064D2B680021986877
:1016B000054CA0472B6800215868A047034B1E60CB
:1016C00070BD00BF4C004020D917400030014020C1
:1016D00008B5064B1B6833B10A46014692B218465C
:1016E000034B984708BD002008BD00BF30014020D3
:1016F0000D06400008B5064B1B6833B10A4601468B
:1017000092B21846034B984708BD002008BD00BFA1
:1017100030014020DD05400010B5044C2046044B4C
:1017200098472046034B984710BD00BF64014020F6
:1017300049084000A516400070B50D4E0D4CA41B85
:10174000A4100025A54209D10B4E0C4C01F0F0F875
:10175000A41BA4100025A54205D170BD56F8253064
:1017600098470135EEE756F8253098470135F2E7FE
:101770003C2940003C2940003C29400040294000D1
:1017800010B5431E0A44914200D110BD11F8014B1F
:1017900003F8014FF7E702440346934200D1704734
:1017A00003F8011BF9E700000FB40A4B13B51C68DE
:1017B00024B1A36913B9204600F076FA05AB049A68
:1017C000A1680193204600F039FC02B0BDE810404A
:1017D00004B070474C00402000294FF480630CBFD8
:1017E0000222002200F000B82DE9F7431D46514BBC
:1017F0001E6804460F46904626B1B36913B93046B9
:1018000000F052FA4C4B9C4252D17468B8F1020F6E
:1018100006D0B8F1010F00F28980002DC0F2868059
:101820002146304600F0D6F9616B41B104F1440322
:10183000994202D0304600F02DFB00236363002361
:10184000A3616360A3891B0603D52169304600F0BC
:1018500021FBA38923F44A6323F00303B8F1020FA9
:10186000A3815DD001AB6A462146304600F0A6FA5E
:10187000A3891843A0812DBB009D284600F002FBE0
:10188000074600284ED1DDF80090A9453CD14FF025
:10189000FF30A38943F00203A3810023A36004F176
:1018A0004703236023610123636103B0BDE8F08334
:1018B000224B9C4201D1B468A8E7214B9C4208BF4F
:1018C000F468A3E7002FD8D0B36913B9304600F00D
:1018D000EBF9B8F1010F08BFA389276004BF43F0FB
:1018E0000103A381A389276113F0080065611BD060
:1018F00013F0010018BF6D424FF000031DBFA3603D
:10190000A5611846A560D0E7484600F0BBFA074637
:101910000028BCD0A38943F08003A3814D46D3E7C0
:101920000020B6E7A946F5E7A060BEE74FF0FF301C
:10193000BBE700BF4C004020BC284000DC28400032
:101940009C284000F8B50E461446054618B1836938
:101950000BB900F0A9F9214B9C422AD16C68A3690C
:10196000A360A3891A072ED5236963B3236920686E
:10197000C01A6369F6B29842374604DB214628460E
:1019800000F028F928BBA368013BA36023685A1C18
:1019900022601E7063690130984204D0A389DB077E
:1019A00019D50A2E17D12146284600F013F990B117
:1019B0000FE00B4B9C4201D1AC68D0E7094B9C4235
:1019C00008BFEC68CBE72146284600F00DF8002858
:1019D000CCD04FF0FF373846F8BD00BFBC284000E0
:1019E000DC2840009C284000324B70B51D6806463C
:1019F0000C4625B1AB6913B9284600F055F92E4BBA
:101A00009C420FD16C68B4F90C309AB215072CD4F3
:101A1000D00611D40922326043F04003A3814FF075
:101A2000FF3070BD254B9C4201D1AC68EBE7244BE5
:101A30009C4208BFEC68E6E7510712D5616B41B1E3
:101A400004F14403994202D0304600F023FA002307
:101A50006363A38923F02403A381002363602369C4
:101A60002360A38943F00803A38123694BB9A389A9
:101A700003F42073B3F5007F03D02146304600F015
:101A8000C1F9A28912F001030CD00023A36063699D
:101A90005B42A361236953B9B4F90C3013F08000A1
:101AA000BAD170BD920758BF6369A360F2E7002006
:101AB000F7E700BF4C004020BC284000DC28400075
:101AC0009C2840008A892DE9F041054610070C4604
:101AD0005AD44B68002B05DC0B6C002B02DC002079
:101AE000BDE8F081E66A002EF9D0002312F480529E
:101AF0002F682B6033D0606DA3895A0705D56368C2
:101B0000C01A636B0BB1236CC01A00230246E66A4D
:101B1000216A2846B047431CA38906D129681D299C
:101B20004BD82B4ACA40D60747D500226260D90459
:101B30002269226004D5421C01D12B6803B960657B
:101B4000616B2F600029CAD004F14403994202D08E
:101B5000284600F09FF900206063BDE8F081216A0B
:101B600001232846B047411CC6D12B68002BC3D0A7
:101B70001D2B01D0162B01D12F60B0E7A38943F0B4
:101B80004003A381BDE8F0810F69002FA7D0930720
:101B90000E6808BF4B690F6018BF0023A6EB07084B
:101BA0008B60B8F1000F9ADD43463A46216AA66A77
:101BB0002846B047002807DCA38943F04003A381EF
:101BC0004FF0FF30BDE8F0810744A8EB0008E8E7DC
:101BD0000100402038B50B6905460C46DBB118B151
:101BE00083690BB900F060F80C4B9C4209D16C681A
:101BF000B4F90C307BB121462846BDE83840FFF7E8
:101C000061BF074B9C4201D1AC68F1E7054B9C4298
:101C100008BFEC68ECE7002038BD00BFBC284000DE
:101C2000DC2840009C284000014900F0A9B800BF12
:101C3000D51B4000002310B5044603604360836059
:101C400081814366C2810361436183611946082231
:101C50005C30FFF7A0FD054B6362054BA362054BAB
:101C6000E362054B2462236310BD00BFB52540002D
:101C7000D72540000F2640003326400070B54A1E8D
:101C8000682555430E4605F1740100F051F90446EC
:101C900040B1002180E842000C30A06005F16802EC
:101CA000FFF779FD204670BD836910B5044633BB4C
:101CB0008364C3640365124B124A1B6882629842B4
:101CC00004BF0123836100F01FF86060204600F02C
:101CD0001BF8A060204600F017F80022E060042105
:101CE0006068FFF7A7FF01220921A068FFF7A2FFA4
:101CF00002221221E068FFF79DFF0123A36110BDBE
:101D000098284000291C4000F8B51C4B1E68B36998
:101D1000074613B93046FFF7C7FF4836B468736803
:101D2000013B03D5336833B13668F7E7B4F90C509B
:101D30006DB16834F4E704213846FFF79FFF306047
:101D40000028F1D10C233B6004462046F8BD4FF635
:101D5000FF73E3810123A38165662560A56065604B
:101D600025616561A5610822294604F15C00FFF741
:101D700012FD6563A563A564E564E6E79828400065
:101D80002DE9F8438046894600F14804002614B93D
:101D90003046BDE8F883A5686768013F01D524682F
:101DA000F5E7AB89012B07D9B5F90E30013303D024
:101DB00029464046C84706436835EEE770B50E46EB
:101DC000B1F90E10002990B014461D4607DA002321
:101DD0002B60B3891A0610D44FF480630EE001AA79
:101DE00000F04EFC0028F2DB029A02F47042A2F5E9
:101DF00000535A425A412A60EEE7402300202360F4
:101E000010B070BD8B8973B59D0706460C4607D58B
:101E100004F14703236023610123636102B070BDB5
:101E200001AB6A46FFF7CAFF00990546304600F04D
:101E30007FF848B9B4F90C309A05EFD423F00303C6
:101E400043F00203A381E3E70D4BB362A389206053
:101E500043F08003A381009B6361019B20615BB120
:101E6000B4F90E10304600F01DFC28B1A38923F010
:101E7000030343F00103A381A3891D43A581CDE79B
:101E8000291C4000024B0146186800F051B800BF01
:101E90004C00402038B50546002945D051F8043C97
:101EA0000C1F002BB8BFE41800F072FC1F4A136827
:101EB000104633B9636014602846BDE8384000F02E
:101EC00068BCA3420CD921686218934204BF1A6807
:101ED0005B68636004BF521822600460ECE713463D
:101EE0005A680AB1A242FAD919685818A0420BD10F
:101EF00020680144581882421960DDD11068526888
:101F00005A6001441960D7E702D90C232B60D3E74C
:101F1000206821188A4204BF11685268626004BFB9
:101F2000091821605C60C7E738BD00BF340140205C
:101F300070B5CD1C25F0030508350C2D38BF0C25D8
:101F4000002D064601DBA94203D90C233360002093
:101F500070BD00F01DFC234A1468214691B9224C43
:101F600023681BB9304600F015FB20602946304637
:101F700000F010FB431C26D10C233360304600F0E8
:101F800008FCE4E70B685B1B1AD40B2B0FD90B6022
:101F9000CD50CC18304600F0FCFB04F10B00231DA3
:101FA00020F00700C31A1BD05A42E25070BD8C4289
:101FB0000DBF63684B686360136018BF0C46E9E7A8
:101FC0000C464968CAE7C41C24F00304A04205D0AB
:101FD000211A304600F0DEFA0130CDD02560D9E775
:101FE00070BD00BF34014020380140209368013BA0
:101FF000002B10B4936008DA9469A34202DBCBB2E1
:102000000A2B02D110BCFFF79DBC1368581C10604E
:102010001970C8B210BC7047F8B506460F46144692
:10202000D518AC4201D1002007E03A4614F8011B54
:102030003046FFF7DBFF431CF3D1F8BD2DE9F04F2D
:102040009DB00C4617460393064618B183690BB939
:10205000FFF72AFE7C4B9C4257D17468A38918076E
:102060005DD52369002B5AD00023099320238DF8D6
:10207000293030238DF82A304FF0010BB846454601
:1020800015F8013B002B55D1B8EB070A0BD053468E
:102090003A4621463046FFF7BFFF013000F0C480CA
:1020A000099B5344099398F80030002B00F0BC8042
:1020B00000234FF0FF3204930793059206938DF8A7
:1020C00053301A9305222978604800F011FB05F17E
:1020D0000108049B002831D1D90644BF20228DF885
:1020E00053201A0744BF2B228DF853202A782A2A1E
:1020F0002CD0079A00210A20A846013598F8003014
:10210000303B092B6DD971B326E0514B9C4201D174
:10211000B468A3E74F4B9C4208BFF4689EE7214692
:102120003046FFF761FC00289ED04FF0FF301DB015
:10213000BDE8F08F252BA7D0A846A0E7434A801A18
:102140000BFA00F0184304904546BBE7039A111DB3
:1021500012680391002A01DB079204E0524243F027
:1021600002030792049398F800302E2B10D198F8B0
:1021700001302A2B08F1010137D1039B1A1D1B687E
:102180000392002BB8BF4FF0FF3308F1020805930C
:10219000314D98F800100322284600F0A9FA40B10A
:1021A0004023401B03FA00F0049B0343049308F10F
:1021B000010898F8001029488DF82810062208F127
:1021C000010700F095FA002834D0254B03BB039B90
:1021D000073323F0070308330393099B4B44099308
:1021E0004CE700FB0232012186E7002305931846E5
:1021F0000A258846013198F80020303A092A03D987
:10220000002BC5D00590C3E705FB00200123F0E7B4
:1022100003AB00932246134B04A93046AFF3008072
:10222000B0F1FF3F8146D8D1A3895B063FF57DAF72
:1022300009987CE703AB009322460A4B04A9304679
:1022400000F088F8ECE700BFBC284000FC28400004
:10225000DC2840009C28400002294000062940005C
:1022600000000000192040002DE9F04791461F466C
:102270008A680B69DDF820809342B8BF1346C9F81D
:10228000003091F8432006460C4612B10133C9F8DC
:1022900000302368990642BFD9F800300233C9F8EC
:1022A0000030256815F0060507D104F1190AE36826
:1022B000D9F800209B1A9D4229DB94F8433022680C
:1022C000003318BF012392062ED404F1430239468D
:1022D0003046C047013021D02368E568D9F8002096
:1022E00003F00603042B08BFAD1AA36822690CBFD4
:1022F00025EAE57500259342C4BF9B1AED184FF0FF
:1023000000091A344D451BD10020BDE8F087012398
:10231000524639463046C047013003D14FF0FF30B6
:10232000BDE8F0870135C2E7E1185A1C302081F87A
:102330004300224494F8451082F843100233C4E766
:102340000123224639463046C0470130E6D009F124
:102350000109D7E72DE9F04317460A7E85B06E2ABA
:10236000984606460C460C9B01F1430E00F0BC80DB
:102370001AD8632A2ED00AD8002A00F0C880582A1A
:1023800000F08A8004F1420584F842202AE0642AA1
:1023900001D0692AF6D121681A6811F0800F23D084
:1023A000111D1960136827E0732A00F0B48008D863
:1023B0006F2A2AD0702AE5D10A6842F020020A600A
:1023C00003E0752A21D0782ADCD1782284F84520D0
:1023D0006E4964E01A6801F14205111D1960136825
:1023E00084F842300123A3E011F0400F02F1040110
:1023F0001960D7D0B2F90030002B03DA2D225B42EE
:1024000084F8432062490A2217E02068196810F016
:10241000800F03D0081D18600B6806E010F0400F15
:1024200001F104001860F7D00B8859496F2A14BFD6
:102430000A220822002084F843006568A560002D68
:10244000C0F29C80206820F004002060002B3FD167
:10245000002D40F095807546082A0BD12368DA07D5
:1024600008D5236962689A42DEBF302305F8013C33
:1024700005F1FF35AEEB05032361CDF800803B4647
:1024800003AA21463046FFF7EFFE013055D14FF049
:10249000FF3005B0BDE8F08381F845203C49226853
:1024A000186812F0800F00F104051D6001D0036868
:1024B00002E05506FBD50388D00744BF42F0200256
:1024C00022601BB9226822F0200222601022B1E7AC
:1024D0007546B3FBF2F002FB1033CB5C05F8013D0F
:1024E00003460028F5D1B7E708681A68496910F073
:1024F000800F04D0101D18601368196007E010F0F9
:10250000400F02F1040018601368F6D01980002310
:1025100023617546B1E71A68111D19601568626874
:102520000021284600F0E4F808B1401B60606368B1
:102530002361002384F843309FE723692A46394604
:102540003046C0470130A2D023689B0707D500253D
:1025500004F11909E368039A9B1A9D4205DBE068C0
:10256000039B9842B8BF184693E701234A46394671
:102570003046C04701308AD00135EBE7002BA7D1A8
:102580000B7884F8423004F1420565E71E294000CB
:102590000D29400038B5064C002305460846236047
:1025A000FEF798F9431C02D1236803B12B6038BDB4
:1025B0003403402010B50C46B1F90E1000F0EAF8D3
:1025C0000028ABBF636DA3891B1823F48053ACBFF5
:1025D0006365A38110BD2DE9F0411F468B89DB05A2
:1025E00005460C46164605D502230022B1F90E1009
:1025F00000F068F8A389B4F90E1023F48053A38186
:1026000032463B462846BDE8F04100F017B810B509
:102610000C46B1F90E1000F055F8431CA38915BF04
:10262000606523F4805343F48053A38118BFA381D2
:1026300010BDB1F90E1000F013B8000038B5074C0A
:10264000054608461146002222601A46FFF716F892
:10265000431C02D1236803B12B6038BD34034020F2
:1026600038B5064C0023054608462360FEF744F9BA
:10267000431C02D1236803B12B6038BD34034020D2
:1026800038B5074C00230546084611462360FEF77F
:1026900036F9431C02D1236803B12B6038BD00BF5B
:1026A0003403402038B5064C002305460846236015
:1026B000FEF72AF9431C02D1236803B12B6038BD11
:1026C0003403402038B5074C054608461146002221
:1026D00022601A46FEF71AF9431C02D1236803B19F
:1026E0002B6038BD340340200000000000000000D3
:1026F00001F0FF01102A2BDB10F0070F08D010F8B3
:10270000013B013A8B422DD010F0070F42B3F6D1B6
:10271000F0B441EA012141EA014122F007047FF0CF
:1027200000070023F0E80256083C85EA010586EA26
:10273000010685FA47F5A3FA87F586FA47F6A5FA62
:1027400087F68EB9EED1F0BC01F0FF0102F007026E
:1027500032B110F8013B013A83EA010313B1F8D119
:102760000020704701387047002D06BF35460338FA
:10277000073815F0010F07D1013015F4807F02BF33
:10278000013015F4C03F0130F0BC0138704700BF84
:102790007047704738B5074C054608461146002279
:1027A00022601A46FEF758FF431C02D1236803B18A
:1027B0002B6038BD340340202E2E2F68616C2F73A0
:1027C00072632F68616C5F63616E5F6173796E63C2
:1027D0002E6300002E2E2F68616C2F7372632F689A
:1027E000616C5F696F2E63002E2E2F68616C2F73F2
:1027F00072632F68616C5F74696D65722E6300008F
:102800002E2E2F68616C2F7372632F68616C5F7559
:10281000736172745F73796E632E63002E2E2F685E
:10282000616C2F7574696C732F7372632F75746983
:102830006C735F6C6973742E630000000001020307
:1028400004050607080C1014182030402E2E2F689F
:10285000706C2F74632F68706C5F74632E6300005C
:102860000100000000080000510000002E2E2F681B
:10287000706C2F756172742F68706C5F7561727403
:102880002E6300004461746120726563656976653A
:10289000643A202564200A00500040200000000017
:1028A0000000000000000000000000000000000028
:1028B0000000000000000000000000000000000018
:1028C0000000000000000000000000000000000008
:1028D00000000000000000000000000000000000F8
:1028E00000000000000000000000000000000000E8
:1028F000000000000000000000000000232D302B2D
:102900002000686C4C0065666745464700303132F0
:102910003334353637383941424344454600303147
:1029200032333435363738396162636465660000A6
:10293000F8B500BFF8BC08BC9E4670478D0140004A
:10294000F8B500BFF8BC08BC9E467047690140005E
:10295000B4014020D4024020D4004020E4004020B4
:10296000EC0040207402402014024020000140206E
:10297000100140201801402000C000401700000056
:1029800001C0000000000000000000009F240000C3
:10299000000000003E490000000000005000402000
:1029A00000000000BC284000DC2840009C284000BB
:1029B0000000000000000000000000000000000017
:1029C0000000000000000000000000000000000007
:1029D00000000000000000000000000000000000F7
:1029E00000000000000000000000000000000000E7
:1029F00000000000000000000000000000000000D7
:0400000500400000B7
:00000001FF
