S01700005350495F4173796E635F536C6176652E737265636A
S21440000020074020ED014000E9014000E9014000A2
S214400010E9014000E9014000E9014000000000001D
S214400020000000000000000000000000E901400061
S214400030E901400000000000E9014000E9014000FD
S214400040E9014000E9014000E9014000E9014000C3
S214400050E9014000E9014000E9014000E9014000B3
S214400060E901400000000000E9014000E9014000CD
S214400070E9014000E9014000E9014000E901400093
S214400080E9014000E9014000E9014000E901400083
S214400090E9014000550C4000E9014000E9014000FC
S2144000A0E9014000E9014000E9014000E901400063
S2144000B0E9014000E9014000E9014000E901400053
S2144000C0E9014000E9014000E9014000E901400043
S2144000D0E9014000E9014000E9014000E901400033
S2144000E0E9014000E9014000E9014000E901400023
S2144000F0E9014000E9014000E9014000E901400013
S214400100E9014000E9014000E9014000E901400002
S214400110E9014000E9014000000000000000000046
S214400120E9014000E9014000E9014000E9014000E2
S214400130E9014000E9014000E9014000E9014000D2
S214400140E9014000E9014000E9014000E9014000C2
S214400150E9014000E9014000E9014000E9014000B2
S214400160E9014000E901400010B5054C237833B959
S214400170044B13B10448AFF300800123237010BD35
S2144001806400402000000000802440000C4B43B137
S2144001900C480D4910B5AFF300800C48036823B9EE
S2144001A010BD0A48036833B97047094B002BF7D097
S2144001B0BDE810401847064B002BF5D0184700BF47
S2144001C0000000008024400068004020802440005A
S2144001D00000000008B5024B9847024B984708BD00
S2144001E0B103400061124000FEE7000008B5104B26
S2144001F0104A9A4209D00E4B0E4A03E01168196025
S214400200043304320C498B42F8D30C4B02E00022F4
S2144002101A6004330A4A9342F9D30A4A0A4B23F037
S2144002207F039360094B9847094B9847FEE700BF0A
S21440023000004020802440006400402064004020AD
S2144002401C01402000ED00E000004000811240000C
S21440025071114000164B1A6F42F480121A675A6F9B
S21440026022F480125A674FF480125A601A6F42F492
S21440027000121A675A6F22F400125A674FF400129F
S2144002805A600C4A116F41F004011167516F41F0FA
S21440029004015167042151601A6F42F480021A67C4
S2144002A05A6F22F480025A674FF480025A607047B1
S2144002B000140E4000100E40044B9B6913F4001FC0
S2144002C003D14FF40012014B1A61704700060E40EE
S2144002D010B5094B9847094B9847094C01462046AC
S2144002E0084B98472023084A08492046084CA04710
S2144002F0084B984710BD00BFB9024000210F400090
S214400300C00040204D064000800040200080004055
S2144003106D064000550240000F4B1A6F22F4001243
S2144003201A675A6F22F400125A674FF400125A6046
S2144003300A4AD2F8143143F01003C2F81431084B7D
S2144003401A6F42F010021A675A6F42F010025A674C
S21440035010225A60704700BF000E0E4000800840D2
S21440036000100E40044B9B6913F4804F03D14FF4AA
S2144003708042014B1A61704700060E4008B5064B96
S2144003809847064B9847064B984702460549064805
S214400390064B984708BD00BF650340001903400060
S2144003A03911400000800240B4004020E908400077
S2144003B008B5064B9847064A536843F400435360D3
S2144003C0044B9847044B984708BD00BF8D0A400031
S2144003D050180E40D10240007D034000EFF31083DA
S2144003E0036072B6BFF35F8F7047BFF35F8F0368DB
S2144003F083F310887047000070B5164604460D46D5
S214400400002818BF002914BF0120002034220449C8
S214400410044B98472368324629462046984770BD85
S214400420E82240005D09400070B5164604460D4679
S214400430002818BF002914BF012000203D2204498F
S214400440044B98476368324629462046984770BD15
S214400450E82240005D09400008B5836A04389847A2
S21440046008BD704770B582B00D46164604468822D1
S2144004701549003018BF0120144B984716B9002084
S21440048002B070BD01A8124B984794F8313013F073
S214400490010F13D194F8313043F0010384F8313022
S2144004A001A80C4B9847A5610025E583A68301214A
S2144004B0A4F12000084B98472846E1E701A8054BE1
S2144004C098476FF00300DBE7FC2240005D094000E0
S2144004D0DD034000EB034000390E40002DE9F041BB
S2144004E082B00C4615468046B6221F49003018BFDB
S2144004F001201E4B98471DB9002002B0BDE8F08190
S21440050008F1200738461A4B9847024650B318F869
S2144005101C3C022B02D16D00ABB200E02B461D46C0
S2144005209A4200D815465CB12146002410E00DF1F1
S214400530070138460F4B98470134A542F7D809E0E3
S2144005400024FAE74E1C38460A4B98470134314699
S214400550A542F7D818F81C3C022B01D02846CCE719
S2144005606808CAE70020C8E7FC2240005D09400052
S2144005702D0A4000A909400070B504460E46051FE6
S21440058000210A4B984700212046094B98470021F6
S2144005902046084B984794F851306FF3000384F890
S2144005A05130636B31462846984770BD390E40003F
S2144005B06D0E4000AD0E4000F8B50446071F0A4BCE
S2144005C09847064604F14005C1B22846074B98476F
S2144005D02379012B04D9C6F307212846034B9847B5
S2144005E0236B38469847F8BDE50E4000ED094000BD
S2144005F038B50446051F0379012B0CD9826BC38F8F
S214400600591CC18732F813100E4B9847E28FA38FC0
S2144006109A4208D238BD826BC38F591CC187D15CC1
S214400620084B9847F2E700212046074B984794F836
S21440063051306FF3000384F85130E36A28469847F8
S214400640E8E700BFB50E4000390E400038B50D460D
S2144006500446F4220349003018BF0120024B984755
S214400660256038BDFC2240005D094000F8B51546BF
S2144006701E4604460F46002818BF002908D0131C03
S21440068018BF012316B10BB1012002E0002000E0A4
S2144006900020FB221A491B4B98473246294604F154
S2144006A04400194B9847002829DB251D3946284623
S2144006B0164B9847002822DB154A00212846154E3F
S2144006C0B047154A01212846B047144A0221284619
S2144006D0B047134A03212846B04794F8553003F0F4
S2144006E0FD036FF3000384F855300E4BA363E362BB
S2144006F0236363630C4BA3620C4B63620020F8BD1C
S214400700FC2240005D09400065094000910D400014
S214400710F1054000150F4000B9054000590440005F
S2144007207905400063044000DD0440006504400055
S21440073038B504464FF492721049003018BF012075
S2144007400F4B984794F8553013F0020F00D038BD41
S214400750251D28460B4B98470028F8D194F855306D
S21440076043F0020384F8553001212846064B98474B
S21440077001212846054B9847E9E700BFFC22400088
S2144007805D094000050E40006D0E4000AD0E400075
S214400790F8B504460D46164672B117464FF4BA727F
S2144007A00E49201C18BF01200D4B9847032D13D827
S2144007B0DFE805F00406080A0A4FEFE72763F8BDAE
S2144007C06763F8BDE762F8BDA763321C18BF012215
S2144007D00321201D044B9847F8BD00BFFC22400073
S2144007E05D09400063044000790D400038B504467A
S2144007F00D46002818BF002914BF012000204FF4E2
S214400800CF720349034B984724342C60002038BDF0
S214400810FC2240005D094000F8B5164605460F46E6
S214400820002818BF002902D00ABB002000E00020A4
S214400830F1221049104B984705F1080420460F4B0B
S21440084098470028F8D00025795D20460C4B9847FD
S21440085020460A4B98470028FAD00135B542F3D3D4
S2144008602046084B98470028FAD02846F8BD012075
S214400870DEE700BF1C2340005D094000C110400079
S21440088079104000E91040002DE9F0411746054632
S2144008908846002818BF002902D0D2B9002000E0C0
S2144008A000204FF486720C490C4B9847002605F101
S2144008B0080420460A4B98470028F8D02046094BA3
S2144008C0984708F806000136BE42F0D33046BDE8E9
S2144008D0F0810120E5E700BF1C2340005D09400091
S2144008E0111140009D10400038B504460D460028C2
S2144008F018BF002914BF0120002034220749084BA6
S2144009009847294604F10800064B9847034618B90D
S214400910054A6260054A2260184638BD1C234000DE
S2144009205D0940000D10400089084000190840004D
S21440093010B5044653220649003018BF0120054B27
S214400940984704F10800044B9847002010BD00BFAC
S2144009501C2340005D0940004510400000B900BE21
S2144009607047000070B5154604460E46002818BF6E
S214400970002902D07AB9002000E000202822084949
S214400980084B98476B1E1D4207D163600020A0604D
S214400990E060266070BD0120F0E76FF00C0070BD8F
S2144009A0382340005D09400038B504460D4600280F
S2144009B018BF002914BF01200020402209490A4BD5
S2144009C09847E268A3689A4209D0226861680B405B
S2144009D0D35C2B70A3680133A360002038BD6FF052
S2144009E0090038BD382340005D09400038B50D4643
S2144009F0044651220B49003018BF01200A4B984745
S214400A002268E36861680B40D554E368A2689A1A86
S214400A1061688A4201D9591AA1600133E360002017
S214400A2038BD00BF382340005D09400010B504467D
S214400A3067220549003018BF0120044B9847E068FC
S214400A40A368C01A10BD00BF382340005D094000AF
S214400A500346064A126822B1044A106803441360EB
S214400A6070470349014A1160F6E700BFA0004020E6
S214400A70200740204FF0FF3070474FF400534B6044
S214400A8000207047012070470020704700B583B0B3
S214400A9001A80E4B98470E4AD2F8883043F47003AC
S214400AA0C2F88830BFF34F8FBFF36F8F01A8094B52
S214400AB09847094A136823F4706343F4C06313608D
S214400AC0064B984703B05DF804FB00BFDD034000CB
S214400AD000ED00E0EB034000000C0E407D0B4000B4
S214400AE00E490A6A22F002020D4B13430B620B4B6F
S214400AF09B6E13F0010FFAD0084B196A094A0A4355
S214400B001A62996A084A0A409A62084A9A62034BED
S214400B109B6E13F0020FFAD0704700BF00060E40DF
S214400B20013E370000003701FFFF00F8013F182064
S214400B30114A136B23F0700313630F4B9B6E13F035
S214400B40080FFAD00C4A136B23F4407343F48073B7
S214400B501363094B9B6E13F0080FFAD0064A136BCB
S214400B6023F0030343F002031363034B9B6E13F01F
S214400B70080FFAD0704700BF00060E4008B5024B7B
S214400B809847024B984708BDE10A4000310B4000A9
S214400B90034B984201D02A2070471520704700BF6B
S214400BA000800040034B984200D07047024B1960CB
S214400BB0FBE700BF00800040A40040200123036004
S214400BC00020704710B50446084B98472046084B0F
S214400BD09847002808DB420900F01F00012303FA6B
S214400BE000F0044B43F82200002010BDBD0B40002F
S214400BF0910B400000E100E0044B0344C3F307437D
S214400C00052B01D000207047012070470080FFBFB1
S214400C1008B50268D16913690B4013F0010F0AD179
S214400C2013F0020F0AD113F4007F0AD140F20C529F
S214400C30134209D108BDC368984708BD83689847E2
S214400C4008BD0369984708BD43696FF0120198478D
S214400C50F0E7000008B5024B1868024B984708BDFD
S214400C60A4004020110C400070B506460C460846CD
S214400C70204B984700233BB300254FF4AC721E49E7
S214400C80002E18BF002C14BF012000201B4B984795
S214400C9055B3236913F4803F29D180232360346001
S214400CA06A68174B13402360AB68164A1A40164BC7
S214400CB013436360EB6823632B8AF380EB6803F08F
S214400CC0F0033371002070BD03EB83018A000F49A7
S214400CD08A5C904202D00133DBB2CCE703EB83055B
S214400CE0AB000D461D44C8E76FF00C0070BD6FF0BA
S214400CF0100070BDF90B4000702340005D094000B5
S214400D007CFFFFFE6FFFF1FF10000E005C234000EB
S214400D1070B50D461646044640F2B92206490030E4
S214400D2018BF0120032D88BF0020044B9847083485
S214400D3044F82560002070BD702340005D094000E7
S214400D4070B50C461546064640F2CB2208490030A0
S214400D5018BF0120074B9847032C00D070BD1DB923
S214400D60336808229A61F9E7336808225A6170BDF1
S214400D70702340005D09400008B5014B984708BD08
S214400D80410D400008B5014B984708BD690C40002E
S214400D9038B504460D46174B9847002828DB0023F5
S214400DA02361E360A36021462846134B98472846B4
S214400DB0124B984700280CDB430900F01F01012224
S214400DC08A4020330E4941F82320BFF34F8FBFF3AC
S214400DD06F8F00280BDB430900F01F00012202FA48
S214400DE000F06033064A42F82300002038BD002059
S214400DF038BD00BF850D4000A50B4000910B40005C
S214400E0000E100E010B5044668B103684BB101202C
S214400E104FF446720549064B98472068054B98475D
S214400E2010BD0020F4E70020F2E700BF702340002A
S214400E305D094000C50B400038B50D46046840F2D9
S214400E4087320849002818BF002C14BF0120002014
S214400E50054B98471DB90223A361002038BD0223E5
S214400E606361FAE7702340005D094000F8B50F461D
S214400E7004680C4E40F296323146003018BF0120CE
S214400E80094DA84740F297323146201C18BF012032
S214400E90A8471FB90123A3610020F8BD0123636161
S214400EA0FAE700BF702340005D0940006FF01A006B
S214400EB07047000038B50D46044668B103684BB12C
S214400EC0012040F2AB320549054B98472368DD6068
S214400ED0002038BD0020F4E70020F2E770234000F1
S214400EE05D09400010B5044668B103684BB1012067
S214400EF04FF46D720549064B98472368986880B250
S214400F0010BD0020F4E70020F2E700BF7023400049
S214400F105D09400008B5014B984708BD110D4000DB
S214400F200020704710B5044640F22B220549003099
S214400F3018BF0120044B984704482044C0F387302C
S214400F4010BD00BF942340005D09400000C0FDBFB7
S214400F5010B5044640F287220E49003018BF0120E3
S214400F600D4B984720460D4B9847002343B140F21F
S214400F70912208490020084B98470023184610BD88
S214400F8003EB43018A0006498A5C9042F6D001335F
S214400F90DBB2EBE7942340005D094000250F40009C
S214400FA08823400010B5044640F29E221149003086
S214400FB018BF0120104B98472046104B9847104BBF
S214400FC0C4F8E430002363606362A362AC2222600C
S214400FD04FF4807222604FF40022226000EB400003
S214400FE08100084A0A4452686260074A22621846EC
S214400FF010BD00BF942340005D094000510F4000E3
S214401000004153558823400051000300F8B50C4674
S214401010094E0746BD223146003018BF0120074D15
S214401020A847BE223146201C18BF0120A8473C6076
S2144010302046034B9847F8BD942340005D09400086
S214401040A50F400070B50A4E044640F205123146E0
S214401050003018BF0120074DA847246840F2C72239
S2144010603146201C18BF0120A8475023236070BD7E
S214401070942340005D09400038B50C4605464FF4C1
S214401080D4720449003018BF0120034B98472B68A0
S214401090DC6138BD942340005D09400010B504462D
S2144010A04FF4DD720449003018BF0120034B9847C7
S2144010B023689869C0B210BD942340005D09400083
S2144010C010B5044640F2C3120549003018BF01204F
S2144010D0044B984723685869C0F3400010BD00BFD2
S2144010E0942340005D09400010B504464FF4E67274
S2144010F00549003018BF0120044B984723685869BB
S214401100C0F3402010BD00BF942340005D0940005E
S21440111010B504464FF4EF720549003018BF012061
S214401120044B98472368586900F0010010BD00BF83
S214401130942340005D0940000020704700B583B00E
S21440114001A90648064B9847064B9968C9B2064817
S214401150064B984703B05DF804FB00BFC000402034
S214401160ED07400000800040B0234000D912400008
S21440117008B5064B9847064C064A01212046064BC2
S21440118098472046054B9847FEE700BFD5014000EC
S214401190C00040203D11400091074000310740000C
S2144011A058B908B50B4611461846054B98470028CF
S2144011B000DB08BD4FF0FF3008BD4FF0FF307047F2
S2144011C019124000013802280BD808B50B461146C4
S2144011D01846054B9847002800DB08BD4FF0FF3007
S2144011E008BD4FF0FF3070473D12400070B50646D0
S2144011F0064D2B6800219868054CA0472B680021B7
S2144012005868A047034B1E6070BD00BF00004020DA
S21440121009134000A800402008B5064B1B6833B1B0
S2144012200A46014692B21846034B984708BD00202E
S21440123008BD00BFA80040202904400008B5064B62
S2144012401B6833B10A46014692B21846034B98478C
S21440125008BD002008BD00BFA8004020F90340009C
S21440126010B5044C2046044B98472046034B9847FD
S21440127010BD00BFB400402031094000ED114000D1
S21440128070B50D4E0D4CA41BA4100025A54209D1E7
S2144012900B4E0C4C01F0E4F8A41BA4100025A5420C
S2144012A005D170BD56F8253098470135EEE756F81B
S2144012B0253098470135F2E76C2440006C24400006
S2144012C06C2440007024400002440346934200D100
S2144012D0704703F8011BF9E70FB40A4B13B51C68B7
S2144012E024B1A36913B9204600F076FA05AB049AF8
S2144012F0A1680193204600F039FC02B0BDE81040DA
S21440130004B070470000402000294FF480630CBFB3
S2144013100222002200F000B82DE9F7431D46514B4B
S2144013201E6804460F46904626B1B36913B9304648
S21440133000F052FA4C4B9C4252D17468B8F1020FFE
S21440134006D0B8F1010F00F28980002DC0F28680E9
S2144013502146304600F0D6F9616B41B104F14403B2
S214401360994202D0304600F02DFB002363630023F1
S214401370A3616360A3891B0603D52169304600F04C
S21440138021FBA38923F44A6323F00303B8F1020F39
S214401390A3815DD001AB6A462146304600F0A6FAEE
S2144013A0A3891843A0812DBB009D284600F002FB70
S2144013B0074600284ED1DDF80090A9453CD14FF0B5
S2144013C0FF30A38943F00203A3810023A36004F106
S2144013D04703236023610123636103B0BDE8F083C4
S2144013E0224B9C4201D1B468A8E7214B9C4208BFDF
S2144013F0F468A3E7002FD8D0B36913B9304600F09D
S214401400EBF9B8F1010F08BFA389276004BF43F08A
S2144014100103A381A389276113F0080065611BD0EF
S21440142013F0010018BF6D424FF000031DBFA360CC
S214401430A5611846A560D0E7484600F0BBFA0746C7
S2144014400028BCD0A38943F08003A3814D46D3E750
S2144014500020B6E7A946F5E7A060BEE74FF0FF30AC
S214401460BBE700BF00004020EC2340000C244000B7
S214401470CC234000F8B50E461446054618B183699D
S2144014800BB900F0A9F9214B9C422AD16C68A3699C
S214401490A360A3891A072ED5236963B323692068FE
S2144014A0C01A6369F6B29842374604DB214628469E
S2144014B000F028F928BBA368013BA36023685A1CA8
S2144014C022601E7063690130984204D0A389DB070E
S2144014D019D50A2E17D12146284600F013F990B1A7
S2144014E00FE00B4B9C4201D1AC68D0E7094B9C42C5
S2144014F008BFEC68CBE72146284600F00DF80028E8
S214401500CCD04FF0FF373846F8BD00BFEC23400044
S2144015100C244000CC234000324B70B51D68064674
S2144015200C4625B1AB6913B9284600F055F92E4B49
S2144015309C420FD16C68B4F90C309AB215072CD483
S214401540D00611D40922326043F04003A3814FF005
S214401550FF3070BD254B9C4201D1AC68EBE7244B75
S2144015609C4208BFEC68E6E7510712D5616B41B173
S21440157004F14403994202D0304600F023FA002397
S2144015806363A38923F02403A38100236360236954
S2144015902360A38943F00803A38123694BB9A38939
S2144015A003F42073B3F5007F03D02146304600F0A5
S2144015B0C1F9A28912F001030CD00023A36063692D
S2144015C05B42A361236953B9B4F90C3013F0800031
S2144015D0BAD170BD920758BF6369A360F2E7002096
S2144015E0F7E700BF00004020EC2340000C244000FA
S2144015F0CC2340008A892DE9F041054610070C4669
S2144016005AD44B68002B05DC0B6C002B02DC002008
S214401610BDE8F081E66A002EF9D0002312F480522D
S2144016202F682B6033D0606DA3895A0705D5636851
S214401630C01A636B0BB1236CC01A00230246E66ADD
S214401640216A2846B047431CA38906D129681D292C
S2144016504BD82B4ACA40D60747D500226260D904E9
S2144016602269226004D5421C01D12B6803B960650B
S214401670616B2F600029CAD004F14403994202D01E
S214401680284600F09FF900206063BDE8F081216A9B
S21440169001232846B047411CC6D12B68002BC3D037
S2144016A01D2B01D0162B01D12F60B0E7A38943F044
S2144016B04003A381BDE8F0810F69002FA7D09307B0
S2144016C00E6808BF4B690F6018BF0023A6EB0708DB
S2144016D08B60B8F1000F9ADD43463A46216AA66A07
S2144016E02846B047002807DCA38943F04003A3817F
S2144016F04FF0FF30BDE8F0810744A8EB0008E8E76C
S2144017000100402038B50B6905460C46DBB118B1E0
S21440171083690BB900F060F80C4B9C4209D16C68A9
S214401720B4F90C307BB121462846BDE83840FFF777
S21440173061BF074B9C4201D1AC68F1E7054B9C4228
S21440174008BFEC68ECE7002038BD00BFEC23400043
S2144017500C244000CC234000014900F0A9B800BF4B
S21440176005174000002310B50446036043608360BD
S21440177081814366C28103614361836119460822C1
S2144017805C30FFF7A1FD054B6362054BA362054B3A
S214401790E362054B2462236310BD00BFE520400092
S2144017A0072140003F2140006321400070B54A1E9B
S2144017B0682555430E4605F1740100F051F904467C
S2144017C040B1002180E842000C30A06005F168027C
S2144017D0FFF77AFD204670BD836910B5044633BBDB
S2144017E08364C3640365124B124A1B688262984244
S2144017F004BF0123836100F01FF86060204600F0BC
S2144018001BF8A060204600F017F80022E060042194
S2144018106068FFF7A7FF01220921A068FFF7A2FF33
S21440182002221221E068FFF79DFF0123A36110BD4D
S214401830C823400059174000F8B51C4B1E68B369D2
S214401840074613B93046FFF7C7FF4836B468736893
S214401850013B03D5336833B13668F7E7B4F90C502B
S2144018606DB16834F4E704213846FFF79FFF3060D7
S2144018700028F1D10C233B6004462046F8BD4FF6C5
S214401880FF73E3810123A38165662560A5606560DB
S21440189025616561A5610822294604F15C00FFF7D1
S2144018A013FD6563A563A564E564E6E7C8234000C9
S2144018B02DE9F8438046894600F14804002614B9CD
S2144018C03046BDE8F883A5686768013F01D52468BF
S2144018D0F5E7AB89012B07D9B5F90E30013303D0B4
S2144018E029464046C84706436835EEE770B50E467B
S2144018F0B1F90E10002990B014461D4607DA0023B1
S2144019002B60B3891A0610D44FF480630EE001AA08
S21440191000F04EFC0028F2DB029A02F47042A2F578
S21440192000535A425A412A60EEE740230020236083
S21440193010B070BD8B8973B59D0706460C4607D51B
S21440194004F14703236023610123636102B070BD45
S21440195001AB6A46FFF7CAFF00990546304600F0DD
S2144019607FF848B9B4F90C309A05EFD423F0030356
S21440197043F00203A381E3E70D4BB362A3892060E3
S21440198043F08003A381009B6361019B20615BB1B0
S214401990B4F90E10304600F01DFC28B1A38923F0A0
S2144019A0030343F00103A381A3891D43A581CDE72B
S2144019B059174000024B0146186800F051B800BF66
S2144019C00000402038B50546002945D051F8043C73
S2144019D00C1F002BB8BFE41800F072FC1F4A1368B7
S2144019E0104633B9636014602846BDE8384000F0BE
S2144019F068BCA3420CD921686218934204BF1A6897
S214401A005B68636004BF521822600460ECE71346CC
S214401A105A680AB1A242FAD919685818A0420BD19E
S214401A2020680144581882421960DDD11068526817
S214401A305A6001441960D7E702D90C232B60D3E7DC
S214401A40206821188A4204BF11685268626004BF49
S214401A50091821605C60C7E738BD00BFAC00402075
S214401A6070B5CD1C25F0030508350C2D38BF0C2568
S214401A70002D064601DBA94203D90C233360002023
S214401A8070BD00F01DFC234A1468214691B9224CD3
S214401A9023681BB9304600F015FB206029463046C7
S214401AA000F010FB431C26D10C233360304600F078
S214401AB008FCE4E70B685B1B1AD40B2B0FD90B60B2
S214401AC0CD50CC18304600F0FCFB04F10B00231D33
S214401AD020F00700C31A1BD05A42E25070BD8C4219
S214401AE00DBF63684B686360136018BF0C46E9E738
S214401AF00C464968CAE7C41C24F00304A04205D03B
S214401B00211A304600F0DEFA0130CDD02560D9E704
S214401B1070BD00BFAC004020B00040209368013B41
S214401B20002B10B4936008DA9469A34202DBCBB270
S214401B300A2B02D110BCFFF79DBC1368581C1060DE
S214401B401970C8B210BC7047F8B506460F46144622
S214401B50D518AC4201D1002007E03A4614F8011BE4
S214401B603046FFF7DBFF431CF3D1F8BD2DE9F04FBD
S214401B709DB00C4617460393064618B183690BB9C9
S214401B80FFF72AFE7C4B9C4257D17468A3891807FE
S214401B905DD52369002B5AD00023099320238DF866
S214401BA0293030238DF82A304FF0010BB846454691
S214401BB015F8013B002B55D1B8EB070A0BD053461E
S214401BC03A4621463046FFF7BFFF013000F0C4805A
S214401BD0099B5344099398F80030002B00F0BC80D2
S214401BE000234FF0FF3204930793059206938DF837
S214401BF053301A9305222978604800F011FB05F10E
S214401C000108049B002831D1D90644BF20228DF814
S214401C1053201A0744BF2B228DF853202A782A2AAD
S214401C202CD0079A00210A20A846013598F80030A3
S214401C30303B092B6DD971B326E0514B9C4201D104
S214401C40B468A3E74F4B9C4208BFF4689EE7214622
S214401C503046FFF761FC00289ED04FF0FF301DB0A5
S214401C60BDE8F08F252BA7D0A846A0E7434A801AA8
S214401C700BFA00F0184304904546BBE7039A111D43
S214401C8012680391002A01DB079204E0524243F0B7
S214401C9002030792049398F800302E2B10D198F840
S214401CA001302A2B08F1010137D1039B1A1D1B680E
S214401CB00392002BB8BF4FF0FF3308F1020805939C
S214401CC0314D98F800100322284600F0A9FA40B19A
S214401CD04023401B03FA00F0049B0343049308F19F
S214401CE0010898F8001029488DF82810062208F1B7
S214401CF0010700F095FA002834D0254B03BB039B20
S214401D00073323F0070308330393099B4B44099397
S214401D104CE700FB0232012186E700230593184674
S214401D200A258846013198F80020303A092A03D916
S214401D30002BC5D00590C3E705FB00200123F0E744
S214401D4003AB00932246134B04A93046AFF3008002
S214401D50B0F1FF3F8146D8D1A3895B063FF57DAF02
S214401D6009987CE703AB009322460A4B04A9304609
S214401D7000F088F8ECE700BFEC2340002C2440003D
S214401D800C244000CC23400032244000362440003F
S214401D9000000000491B40002DE9F04791461F46D1
S214401DA08A680B69DDF820809342B8BF1346C9F8AD
S214401DB0003091F8432006460C4612B10133C9F86C
S214401DC000302368990642BFD9F800300233C9F87C
S214401DD00030256815F0060507D104F1190AE368B6
S214401DE0D9F800209B1A9D4229DB94F8433022689C
S214401DF0003318BF012392062ED404F1430239461D
S214401E003046C047013021D02368E568D9F8002025
S214401E1003F00603042B08BFAD1AA36822690CBF63
S214401E2025EAE57500259342C4BF9B1AED184FF08E
S214401E3000091A344D451BD10020BDE8F087012328
S214401E40524639463046C047013003D14FF0FF3046
S214401E50BDE8F0870135C2E7E1185A1C302081F80A
S214401E604300224494F8451082F843100233C4E7F6
S214401E700123224639463046C0470130E6D009F1B4
S214401E800109D7E72DE9F04317460A7E85B06E2A4A
S214401E90984606460C460C9B01F1430E00F0BC806B
S214401EA01AD8632A2ED00AD8002A00F0C880582AAA
S214401EB000F08A8004F1420584F842202AE0642A31
S214401EC001D0692AF6D121681A6811F0800F23D014
S214401ED0111D1960136827E0732A00F0B48008D8F3
S214401EE06F2A2AD0702AE5D10A6842F020020A609A
S214401EF003E0752A21D0782ADCD1782284F8452060
S214401F006E4964E01A6801F14205111D19601368B4
S214401F1084F842300123A3E011F0400F02F104019F
S214401F201960D7D0B2F90030002B03DA2D225B427D
S214401F3084F8432062490A2217E02068196810F0A6
S214401F40800F03D0081D18600B6806E010F0400FA5
S214401F5001F104001860F7D00B8859496F2A14BF66
S214401F600A220822002084F843006568A560002DF8
S214401F70C0F29C80206820F004002060002B3FD1F7
S214401F80002D40F095807546082A0BD12368DA0765
S214401F9008D5236962689A42DEBF302305F8013CC3
S214401FA005F1FF35AEEB05032361CDF800803B46D7
S214401FB003AA21463046FFF7EFFE013055D14FF0D9
S214401FC0FF3005B0BDE8F08381F845203C492268E3
S214401FD0186812F0800F00F104051D6001D00368F8
S214401FE002E05506FBD50388D00744BF42F02002E6
S214401FF022601BB9226822F0200222601022B1E73C
S2144020007546B3FBF2F002FB1033CB5C05F8013D9E
S21440201003460028F5D1B7E708681A68496910F002
S214402020800F04D0101D18601368196007E010F088
S214402030400F02F1040018601368F6D019800023A0
S21440204023617546B1E71A68111D19601568626804
S2144020500021284600F0E4F808B1401B6060636841
S2144020602361002384F843309FE723692A46394694
S2144020703046C0470130A2D023689B0707D50025CD
S21440208004F11909E368039A9B1A9D4205DBE06850
S214402090039B9842B8BF184693E701234A46394601
S2144020A03046C04701308AD00135EBE7002BA7D138
S2144020B00B7884F8423004F1420565E74E24400030
S2144020C03D24400038B5064C0023054608462360AC
S2144020D0FEF7BEFC431C02D1236803B12B6038BD1B
S2144020E01801402010B50C46B1F90E1000F0EAF881
S2144020F00028ABBF636DA3891B1823F48053ACBF85
S2144021006365A38110BD2DE9F0411F468B89DB0531
S21440211005460C46164605D502230022B1F90E1098
S21440212000F068F8A389B4F90E1023F48053A38115
S21440213032463B462846BDE8F04100F017B810B599
S2144021400C46B1F90E1000F055F8431CA38915BF94
S214402150606523F4805343F48053A38118BFA38162
S21440216010BDB1F90E1000F013B8000038B5074C9A
S214402170054608461146002222601A46FFF722F816
S214402180431C02D1236803B12B6038BD18014020A0
S21440219038B5064C0023054608462360FEF76AFC21
S2144021A0431C02D1236803B12B6038BD1801402080
S2144021B038B5074C00230546084611462360FEF70F
S2144021C05CFC431C02D1236803B12B6038BD00BFC2
S2144021D01801402038B5064C0023054608462360C3
S2144021E0FEF750FC431C02D1236803B12B6038BD78
S2144021F01801402038B5074C0546084611460022CF
S21440220022601A46FEF740FC431C02D1236803B105
S2144022102B6038BD18014020000000000000000080
S21440222001F0FF01102A2BDB10F0070F08D010F842
S214402230013B013A8B422DD010F0070F42B3F6D146
S214402240F0B441EA012141EA014122F007047FF05F
S21440225000070023F0E80256083C85EA010586EAB6
S214402260010685FA47F5A3FA87F586FA47F6A5FAF2
S21440227087F68EB9EED1F0BC01F0FF0102F00702FE
S21440228032B110F8013B013A83EA010313B1F8D1A9
S2144022900020704701387047002D06BF354603388A
S2144022A0073815F0010F07D1013015F4807F02BFC3
S2144022B0013015F4C03F0130F0BC0138704700BF14
S2144022C07047704738B5074C054608461146002209
S2144022D022601A46FEF764FF431C02D1236803B10E
S2144022E02B6038BD180140202E2E2F68616C2F734E
S2144022F072632F68616C5F696F2E63002E2E2F68A5
S214402300616C2F7372632F68616C5F7370695F7363
S2144023105F6173796E632E63000000002E2E2F6877
S214402320616C2F7372632F68616C5F757361727432
S2144023305F73796E632E63002E2E2F68616C2F7547
S21440234074696C732F7372632F7574696C735F72E4
S214402350696E676275666665722E630000000000EF
S21440236000000080000000000200000000000000A6
S2144023702E2E2F68706C2F7370692F68706C5F7389
S21440238070692E630000000001000000C0081000C5
S214402390510003002E2E2F68706C2F757361727477
S2144023A02F68706C5F75736172742E630000000056
S2144023B04D657373616765207265636569766564AC
S2144023C0202564200A000000040040200000000091
S2144023D000000000000000000000000000000000B8
S2144023E000000000000000000000000000000000A8
S2144023F00000000000000000000000000000000098
S2144024000000000000000000000000000000000087
S2144024100000000000000000000000000000000077
S214402420000000000000000000000000232D302BBC
S2144024302000686C4C006566674546470030313280
S21440244033343536373839414243444546003031D7
S2144024503233343536373839616263646566000036
S214402460F8B500BFF8BC08BC9E4670478D014000DA
S214402470F8B500BFF8BC08BC9E46704769014000EE
S2144024800400402000000000EC2340000C244000E4
S214402490CC234000000000000000000000000000C8
S2144024A000000000000000000000000000000000E7
S2144024B000000000000000000000000000000000D7
S2144024C000000000000000000000000000000000C7
S2144024D000000000000000000000000000000000B7
S2084024E000000000B3
S804400000BB
