S01500005350495F434C4B5F4572726F722E7372656381
S21440000078064020E5014000E1014000E101400063
S214400010E1014000E1014000E10140000000000035
S214400020000000000000000000000000E101400069
S214400030E101400000000000E1014000E101400015
S214400040E1014000E1014000E1014000E1014000E3
S214400050E1014000E1014000E1014000E1014000D3
S214400060E101400000000000E1014000E1014000E5
S214400070E1014000E1014000E1014000E1014000B3
S214400080E1014000E1014000E1014000E1014000A3
S214400090E1014000CD084000E1014000E1014000A0
S2144000A0E1014000E1014000E1014000E101400083
S2144000B0E1014000E1014000E1014000E101400073
S2144000C0E1014000E1014000E1014000E101400063
S2144000D0E1014000E1014000E1014000E101400053
S2144000E0E1014000E1014000E1014000E101400043
S2144000F0E1014000E1014000E1014000E101400033
S214400100E1014000E1014000E1014000E101400022
S214400110E1014000E1014000000000000000000056
S214400120E1014000E1014000E1014000E101400002
S214400130E1014000E1014000E1014000E1014000F2
S214400140E1014000E1014000E1014000E1014000E2
S214400150E1014000E1014000E1014000E1014000D2
S214400160E1014000E101400010B5054C237833B969
S214400170044B13B10448AFF300800123237010BD35
S2144001800C004020000000009C0C40000C4B43B18B
S2144001900C480D4910B5AFF300800C48036823B9EE
S2144001A010BD0A48036833B97047094B002BF7D097
S2144001B0BDE810401847064B002BF5D0184700BF47
S2144001C0000000009C0C4000100040209C0C4000AA
S2144001D00000000008B5014B984708BDF1024000FA
S2144001E0FEE7000008B5104B104A9A4209D00E4B65
S2144001F00E4A03E011681960043304320C498B42FE
S214400200F8D30C4B02E000221A6004330A4A9342A9
S214400210F9D30A4A0A4B23F07F039360094B984769
S214400220094B9847FEE700BF000040209C0C40006A
S2144002300C0040200C0040207800402000ED00E0FC
S21440024000004000D50B4000B50B4000114B1A6F24
S21440025042F480121A675A6F22F480125A674FF49B
S21440026080125A601A6F42F400121A675A6F22F4CC
S21440027000125A674FF400125A601A6F42F4800216
S2144002801A675A6F22F480025A674FF480025A6007
S214400290704700BF00140E40044B9B6913F4001FC8
S2144002A003D14FF40012014B1A61704700060E400E
S2144002B010B5084B9847084B9847084C01462046CF
S2144002C0074B984707492046074B9847074B9847A0
S2144002D010BD00BF99024000B10B400030004020E6
S2144002E0A905400000800040C90540004D0240007E
S2144002F008B5054B9847054A536843F40043536096
S214400300034B984708BD00BF0507400050180E40F5
S214400310B10240007047000010B582B0094C01A9F8
S2144003202046094B9847094A00212046084B9847E3
S2144003302046084B98470C2207490198074B984798
S21440034002B010BD30004020B90640001503400002
S214400350750640004D064000000040209D034000CA
S214400360EFF31083036072B6BFF35F8F7047BFF33F
S2144003705F8F036883F310887047000010B5044B06
S2144003801C68044B984701462046034B984710BDCF
S21440039028004020EB064000FD06400070B516469B
S2144003A004460D46002818BF002914BF012000202F
S2144003B034220449044B984723683246294620464F
S2144003C0984770BD1C0C4000E5064000F8B50F4647
S2144003D01646044640F227120949003018BF01204D
S2144003E0084B98470025A5616761E66125621023A2
S2144003F023720121A4F12000034B98472846F8BDFC
S214400400300C4000E5064000310A400070B50D460D
S2144004101646044640F205120C49003018BF01202B
S2144004200B4B9847A56100256561E6612562102360
S2144004302372203C01212046064B984740F2FF118C
S2144004402046054B9847284670BD00BF300C4000FC
S214400450E5064000650A4000E90A400070B50446DB
S2144004600E46051F0021094B984700212046084BA1
S214400470984700212046074B9847002384F82830A9
S214400480236B13B131462846984770BD310A400069
S214400490650A4000A50A400038B5026CC36B9A4214
S2144004A000D238BD051F04460021054B984700235F
S2144004B084F82830E36A002BF3D028469847F0E7C4
S2144004C0A50A400010B504460379012B0CD9426BAF
S2144004D0036C591C016432F813100C4B9847226C7D
S2144004E0E36B9A4208D010BD426B036C591C016402
S2144004F0D15C064B9847F2E700212046044B9847CC
S21440050001212046034B9847EDE700BFE90A40002B
S214400510310A4000A50A4000F8B50446071F856B1F
S214400520FDB10379012B15D9066C731C03641B4B74
S214400530984725F81600236CE26B934221D2626BF3
S214400540D2B12179012912D932F813102046144B22
S2144005509847F8BD066C731C0364104B9847A85523
S214400560E9E70E4B9847236C01332364E3E7D15CFD
S21440057020460B4B9847F8BDE1882046084B9847E5
S214400580F8BD00212046074B9847002384F82830C2
S214400590E36A0BB138469847F8BD00BF190B4000D8
S2144005A0E90A4000650A400038B50D4604469E22DA
S2144005B00349003018BF0120024B9847256038BDDC
S2144005C0300C4000E506400070B505460E46002853
S2144005D018BF002914BF01200020A5221149124B44
S2144005E098472C4644F8046F314620460F4B9847B0
S2144005F0002815DB0E4A002120460E4EB0470E4A14
S21440060001212046B0470D4A02212046B0470C4AF9
S21440061003212046B0470B4BAB620B4B6B6200206E
S21440062070BD00BF300C4000E50640008909400020
S214400630C5044000490B400019054000990440009D
S2144006405D0440000D044000CD03400010B5044654
S214400650C1220549003018BF0120044B9847201D91
S214400660034B984710BD00BF300C4000E5064000E5
S214400670FD09400070B50C461646054640F263122A
S2144006800A49003018BF0120012C88BF0020084BC3
S21440069098470CB92E6370BD6E63321C18BF01229A
S2144006A00321281D034B984770BD00BF300C400007
S2144006B0E5064000790B400038B504460D46002854
S2144006C018BF002914BF0120002040F26F120349D2
S2144006D0034B984724342C60002038BD300C400033
S2144006E0E506400000B900BE70474FF4967303FB22
S2144006F000F04FF47A7303FB00F070470139FDD8E1
S2144007007047000000B583B001A80E4B98470E4ACC
S214400710D2F8883043F47003C2F88830BFF34F8F66
S214400720BFF36F8F01A8094B9847094A136823F413
S214400730706343F4C0631360064B984703B05DF89C
S21440074004FB00BF6103400000ED00E06F03400083
S214400750000C0E40F50740000E490A6A22F00202DD
S2144007600D4B13430B620B4B9B6E13F0010FFAD0ED
S214400770084B196A094A0A431A62996A084A0A40A3
S2144007809A62084A9A62034B9B6E13F0020FFAD0A5
S214400790704700BF00060E40013E3700000037019C
S2144007A0FFFF00F8013F1820114A136B23F0700337
S2144007B013630F4B9B6E13F0080FFAD00C4A136B63
S2144007C023F4407343F480731363094B9B6E13F01A
S2144007D0080FFAD0064A136B23F0030343F00203D4
S2144007E01363034B9B6E13F0080FFAD0704700BF9D
S2144007F000060E4008B5024B9847024B984708BD86
S21440080059074000A9074000034B984201D02A20D0
S21440081070471520704700BF00800040034B984249
S21440082000D07047024B1960FBE700BF00800040D5
S2144008302C004020012303600020704710B504467A
S214400840084B98472046084B9847002808DB420943
S21440085000F01F00012303FA00F0044B43F8220087
S214400860002010BD350840000908400000E100E0C7
S214400870044B0344C3F30743052B01D000207047C5
S214400880012070470080FFBF08B50268D169136930
S2144008900B4013F0010F0AD113F0020F0AD113F4E4
S2144008A0007F0AD140F20C52134209D108BDC368FA
S2144008B0984708BD8368984708BD0369984708BDB0
S2144008C043696FF012019847F0E7000008B5024B05
S2144008D01868024B984708BD2C0040208908400005
S2144008E070B506460C460846204B984700233BB357
S2144008F000254FF4AC721E49002E18BF002C14BFC2
S214400900012000201B4B984755B3236913F4803FC2
S21440091029D18023236034606A68174B13402360D4
S214400920AB68164A1A40164B13436360EB68236362
S2144009302B8AF380EB6803F0F0033371002070BD20
S21440094003EB83018A000F498A5C904202D0013350
S214400950DBB2CCE703EB8305AB000D461D44C8E78E
S2144009606FF00C0070BD6FF0100070BD7108400055
S214400970640C4000E50640007CFFFFFE6FFFF1FF81
S21440098010000E00500C400038B504460D46174B7C
S2144009909847002828DB00232361E360A3602146B4
S2144009A02846134B98472846124B984700280CDB9E
S2144009B0430900F01F0101228A4020330E4941F8C6
S2144009C02320BFF34F8FBFF36F8F00280BDB430905
S2144009D000F01F00012202FA00F06033064A42F897
S2144009E02300002038BD002038BD00BFE10840008D
S2144009F01D0840000908400000E100E010B504462C
S214400A0068B103684BB1012040F29D120549064B80
S214400A1098472068054B984710BD0020F4E7002013
S214400A20F2E700BF640C4000E50640003D08400089
S214400A3038B50D4604684FF41E720849002818BFA2
S214400A40002C14BF01200020054B98471DB90223F7
S214400A50A361002038BD02236361FAE7640C4000BE
S214400A60E5064000F8B50F4604680C4E40F2872273
S214400A703146003018BF0120094DA8474FF4227276
S214400A803146201C18BF0120A8471FB90123A36187
S214400A900020F8BD01236361FAE700BF640C400004
S214400AA0E5064000F8B50F4604680D4E40F2972222
S214400AB03146003018BF01200A4DA8474FF4267231
S214400AC03146201C18BF0120A84727B94FF40073B1
S214400AD0A3610020F8BD4FF400736361F9E700BFDF
S214400AE0640C4000E506400038B50D46044668B143
S214400AF003684BB1012040F2A5220549054B9847B3
S214400B002368DD60002038BD0020F4E70020F2E7CF
S214400B10640C4000E506400010B5044668B1036822
S214400B204BB1012040F2AE220549064B9847236858
S214400B30986880B210BD0020F4E70020F2E700BFBE
S214400B40640C4000E506400070B50D461646044667
S214400B5040F2B9220649003018BF0120032D88BF55
S214400B600020044B9847083444F82560002070BDA8
S214400B70640C4000E506400070B50C461546064637
S214400B8040F2CB220849003018BF0120074B984757
S214400B90032C00D070BD1DB9336808229A61F9E76E
S214400BA0336808225A6170BD640C4000E506400078
S214400BB00020704708B5044B98470120034B9847E0
S214400BC0034B9847F9E700BFD50140007D0340003E
S214400BD01903400070B50D4E0D4CA41BA410002503
S214400BE0A54209D10B4E0C4C00F048F8A41BA410AB
S214400BF00025A54205D170BD56F8253098470135E9
S214400C00EEE756F8253098470135F2E7880C400065
S214400C10880C4000880C40008C0C40002E2E2F681C
S214400C20616C2F7372632F68616C5F696F2E63000F
S214400C302E2E2F68616C2F7372632F68616C5F7302
S214400C4070695F6D5F6173796E632E6300000000AC
S214400C5000000000000000800100000002FA960438
S214400C60FFFF00002E2E2F68706C2F7370692F6860
S214400C70706C5F7370692E6300000000F8B500BFAB
S214400C80F8BC08BC9E4670478D014000F8B500BFD2
S210400C90F8BC08BC9E4670476901400056
S210400C9C48656C6C6F20576F726C6421CA
S804400000BB
